:0400000007EF00F016
:100008007B82E5ED11F091EF21F0040E0101146FF0
:10001800010E156F1AEF06F0250E2E19D8B40AD066
:1000280000C1D9FF01C1DAFF2EC1DFFF004B012B50
:100038001AEF06F0000E2B6F000E2A6F000E256FC8
:10004800000E246F04D001012485024B032B02C14A
:10005800F6FF03C1F7FFF86A0800F550300AD8B474
:10006800F2D702C1F6FF03C1F7FFF86A0800F5509E
:1000780086EC22F0D8A037D0000E01012B6F000EBD
:100088002A6F2AC180F02BC181F0000E0001836F16
:100098000A0E826F5FEC22F080C02AF181C02BF13A
:1000A800D00E01010C6FFF0E0D6F02C1F6FF03C1E8
:1000B800F7FFF86A0800F5500E6F0F6B0C510E270A
:1000C8000D510F230E512A270F512B23024B032BBF
:1000D80002C1F6FF03C1F7FFF86A0800F55086EC85
:1000E80022F0D8B0CED702C1F6FF03C1F7FFF86AF5
:1000F8000800F5502E0AD8A436D00101258D024BF0
:10010800032B000E2D6F000E2C6F21D02CC180F018
:100118002DC181F0000E0001836F0A0E826F5FEC23
:1001280022F002C1F6FF03C1F7FFF86A0800F55094
:1001380000018027000E8123D00E802501012C6F3D
:10014800FF0E0001812101012D6F024B032B02C11B
:10015800F6FF03C1F7FFF86A0800F55086EC22F0B5
:10016800D8A09ED0D3D7000E01012D6F000E2C6FA2
:10017800258996D02585B1D014C1D9FF15C1DAFFDC
:10018800DECF16F1DDCF17F1020E1427000E15236E
:1001980016511711D8A404D0C50E166FFF0E176F8D
:1001A800000E196F000E186F03D00101184B192BA0
:1001B800185116250C6F195117210D6F0CC1F6FF38
:1001C8000DC1F7FF000EF86E0F0EF76403D008009C
:1001D800F55005D0F6CFE9FFF7CFEAFFEF50000959
:1001E800D8A4E3D701012C512D11D8B40AD0185145
:1001F8002C5D19512D59D8B004D02CC118F12DC13E
:1002080019F12A51185D2B511959D8B005D0185138
:100218002A5F19512B5B0DD0000E2B6F000E2A6F31
:1002280008D000C1D9FF01C1DAFF200EDF6E004BF4
:10023800012B2A07D8A02B072A29F3E12B29D8B4A8
:100248001CD0EFD716C1F6FF17C1F7FF000EF86EE6
:1002580000C1D9FF01C1DAFF0F0EF76403D008000F
:10026800F55005D0F6CFE9FFF7CFEAFFEF50DF6E84
:100278000101164B172B004B012B1807D8A01907A3
:100288001829E0E11929D8B41AEF06F0DBD72E0EA9
:10029800166F010E176F000E196F010E186FA2D797
:1002A80002C1F6FF03C1F7FF0101024B032BF86AF5
:1002B8000800F5CF2EF12E51000AD8B428EF06F029
:1002C800640AD8B40AD0020AD8B454D70F0AD8B4EA
:1002D80004D01A0AD8B450D7DAD7070E2515D8B4DF
:1002E80068D325A904D0000E2D6F060E2C6F14C1FB
:1002F800D9FF15C1DAFFDECF26F1DECF27F1DECF39
:1003080028F1DECF29F1040E1427000E152329AF9A
:1003180015D026C194F027C195F028C196F029C1BF
:1003280097F0ECEC21F094C026F195C027F196C027
:1003380028F197C029F1030E01012413000E236F41
:10034800000E226F2651271128112911D8B488D000
:1003580028352935820F226F236BFF0E23232207AE
:10036800D8A0230722C180F023C181F0000E00012C
:10037800836F030E826F5FEC22F080C022F181C090
:1003880023F122C186F023C187F0000E0001896F96
:100398000A0E886F99EC1FF086C022F187C023F1FE
:1003A800010123AF03D02207D8A023072251000858
:1003B80005EC09F0D1C01AF1D2C01BF1D3C01CF171
:1003C800D4C01DF11AC1B8F01BC1B9F01CC1BAF0F4
:1003D8001DC1BBF026C1BCF027C1BDF028C1BEF0CD
:1003E80029C1BFF057EC0BF0B8C01AF1B9C01BF126
:1003F800BAC01CF1BBC01DF11AC1F2F01BC1F3F069
:100408001CC1F4F01DC1F5F0000E0001F66F000EDE
:10041800F76F800EF86F3F0EF96F0EEC1CF00001BD
:10042800D8B005D001012207D8A0230719D01AC1D6
:10043800F2F01BC1F3F01CC1F4F01DC1F5F0000E81
:100448000001F66F000EF76F200EF86F410EF96F7E
:100458000EEC1CF00001D8A003D00101224B232B85
:1004680001012DBF06D02D5121E10D0E2C5DD8B014
:100478001DD026C1DEF027C1DFF028C1E0F029C178
:10048800E1F02C5162EC13F0D1C0E2F0D2C0E3F0FD
:10049800D3C0E4F0D4C0E5F0A8EC0EF0DEC026F13D
:1004A800DFC027F1E0C028F1E1C029F1010123BF35
:1004B80006D0235124E10A0E225DD8B020D026515F
:1004C800271128112911D8B467D026C1F2F027C105
:1004D800F3F028C1F4F029C1F5F0BAEC1DF00001E1
:1004E800F251F311F411F511D8A456D0010123BF2C
:1004F80053D0235104E1020E225DD8A04DD01AC179
:10050800F2F01BC1F3F01CC1F4F01DC1F5F05F0E51
:100518000001F66F700EF76F890EF86F400EF96FD5
:100528000EEC1CF00001D8B003D00101F70E02D088
:100538000101F80E2227FF0E2323225105EC09F0B2
:10054800D1C01AF1D2C01BF1D3C01CF1D4C01DF127
:1005580026C180F027C181F028C182F029C183F02B
:100568001AC184F01BC185F01CC186F01DC187F03B
:1005780079EC1BF080C01EF181C01FF182C020F110
:1005880083C021F1000E0101266F000E276F000EB7
:10059800286F000E296F3CD026C1F2F027C1F3F076
:1005A80028C1F4F029C1F5F0BAEC1DF0F2C01EF133
:1005B800F3C01FF1F4C020F1F5C021F126C1F2F01B
:1005C80027C1F3F028C1F4F029C1F5F01EC186F067
:1005D8001FC187F020C188F021C189F0000E8DEC81
:1005E80019F086C0F6F087C0F7F088C0F8F089C027
:1005F800F9F049EC21F0F2C026F1F3C027F1F4C07C
:1006080028F1F5C029F1000E0101236F000E226FB9
:10061800010E2E6F0A0E2E19D8B41BD02E51040DC0
:10062800610EF324F66EFF0EF420F76EF86A000EE2
:10063800F8220900F5501E5D0900F5501F59090000
:10064800F55020590900F5502159D8A002D02E2B79
:10065800E1D72EC10CF10D6B0CBF0D072C510C27E7
:100668002D510D2322510C2723510D230C512A5FA4
:100678000D512B5B2C512D11D8B403D02A07D8A0CB
:100688002B07030E24150C6F000E25150D6F0C514A
:100698000D11D8B403D02A07D8A02B0724A531D030
:1006A800030E24150C6F000E25150D6F0C510D113E
:1006B800D8B414D000C1D9FF01C1DAFF2D0EDF6E06
:1006C800004B012B0BD000C1D9FF01C1DAFF300E5E
:1006D800DF6E004B012B2A07D8A02B072BBF76D043
:1006E8002B51F1E12A05D8A071D0EDD700C1D9FF6F
:1006F80001C1DAFF200EDF6E004B012B2A07D8A0BC
:100708002B072BBF05D02B51F1E12A05D8B0EED726
:10071800030E24150C6F000E25150D6F0C510D11CD
:10072800D8B454D000C1D9FF01C1DAFF2D0E4BD087
:100738001EC180F01FC181F020C182F021C183F069
:100748002E51040D610EF324F66EFF0EF420F76EA1
:10075800F86A000EF8220900F5CF84F00900F5CFF9
:1007680085F00900F5CF86F00A00F5CF87F0DCECBC
:100778001FF080C01AF181C01BF182C01CF183C038
:100788001DF11AC18DF01BC18EF01CC18FF01DC167
:1007980090F00A0E0001916F000E926F000E936F99
:1007A800000E946F8EEC20F08DC01AF18EC01BF1F4
:1007B8008FC01CF190C01DF101011A51300F00C10A
:1007C800D9FF01C1DAFFDF6E004B012B2E072E295E
:1007D800D8B40CD0ADD700C1D9FF01C1DAFF300EB3
:1007E800DF6E004B012B2207D8A0230723BF05D0BB
:1007F8002351F1E12205D8B0EED72DBF09D02D51F4
:1008080004E1090E2C5DD8A003D0080E2E6F02D08B
:100818002CC12EF12E512C5F000E2EBFFF0E2D5B2A
:100828002E51D8B408D000C1D9FF01C1DAFF2E0E6D
:10083800DF6E004B012B2E5105EC09F0D1C010F1F1
:10084800D2C011F1D3C012F1D4C013F126C1BCF04B
:1008580027C1BDF028C1BEF029C1BFF010C1B8F052
:1008680011C1B9F012C1BAF013C1BBF057EC0BF0CB
:10087800B8C0F2F0B9C0F3F0BAC0F4F0BBC0F5F0FC
:10088800BAEC1DF0F2C01EF1F3C01FF1F4C020F164
:10089800F5C021F178D01EC180F01FC181F020C1C0
:1008A80082F021C183F001012E51040D610EF32461
:1008B800F66EFF0EF420F76EF86A000EF8220900B3
:1008C800F5CF84F00900F5CF85F00900F5CF86F063
:1008D8000A00F5CF87F0DCEC1FF080C01AF181C068
:1008E8001BF182C01CF183C01DF11AC18DF01BC120
:1008F8008EF01CC18FF01DC190F00A0E0001916F9F
:10090800000E926F000E936F000E946F8EEC20F025
:100918008DC01AF18EC01BF18FC01CF190C01DF163
:1009280001011A51300F00C1D9FF01C1DAFFDF6E92
:10093800004B012B1EC18DF01FC18EF020C18FF01E
:1009480021C190F02E51040D610EF324F66EFF0EB6
:10095800F420F76EF86A000EF8220900F5CF91F03E
:100968000900F5CF92F00900F5CF93F00A00F5CF12
:1009780094F08EEC20F08DC01EF18EC01FF18FC058
:1009880020F190C021F101012E072E29D8B40CD0F6
:1009980082D700C1D9FF01C1DAFF300EDF6E004BEC
:1009A800012B2C07D8A02D072C512D11D8B43ED1DE
:1009B800F0D714C1D9FF15C1DAFFDECF1EF1DDCFA4
:1009C8001FF1000E1FBFFF0E206F216F020E1427AC
:1009D800000E152321AF0AD0030E2413211F201F58
:1009E8001F1F1E6D000E1F23202321232C512D11A4
:1009F800D8A408D01E511F1120112111D8A402D04B
:100A08002C4B2D2B010E2E6F0A0E2E19D8B41BD08D
:100A18002E51040D610EF324F66EFF0EF420F76ECE
:100A2800F86A000EF8220900F5501E5D0900F5501D
:100A38001F590900F55020590900F5502159D8A02F
:100A480002D02E2BE1D7800E2EBF7F0E0C6F2C51BB
:100A58002E5D2D51800A0C59D8B003D02CC12EF12F
:100A680010D02D51800A0C6F2E512C5D800E2EBF98
:100A78007F0E0C59D8B005D02E512C6F2D6B2CBF82
:100A88002D072A512B11D8B40DD0030E24150C6F45
:100A9800000E25150D6F0C510D11D8B403D02A077F
:100AA800D8A02B0725AD13D02A512C5D2D51800AD3
:100AB8000C6F2B51800A0C59D8B005D02C512A5FE5
:100AC8002D512B5B04D0000E2B6F000E2A6F800E69
:100AD8002EBF7F0E0C6F2A512E5D2B51800A0C59A8
:100AE800D8B007D02E512A5F000E2EBFFF0E2B5B09
:100AF80004D0000E2B6F000E2A6F24A522D0030EFF
:100B080024150C6F000E25150D6F0C510D11D8B45E
:100B180008D000C1D9FF01C1DAFF2D0EDF6E004BEE
:100B2800012B2A512B11D8B479D000C1D9FF01C1AA
:100B3800DAFF300EDF6E004B012B2A07D8A02B07F7
:100B4800F0D72A512B11D8B40FD000C1D9FF01C159
:100B5800DAFF200EDF6E004B012B2A07D8A02B07E7
:100B68002A512B11D8A4F1D7030E24150C6F000EAF
:100B780025150D6F0C510D11D8B450D000C1D9FFF7
:100B880001C1DAFF2D0EDF6E47D02CC10CF12DC14B
:100B98000DF1D8900C370D37D8900C370D37610E02
:100BA8000C25F66EFF0E0D21F76EF86A000EF8227E
:100BB8000900F5CF84F00900F5CF85F00900F5CFDD
:100BC80086F00A00F5CF87F01EC180F01FC181F0C2
:100BD80020C182F021C183F0DCEC1FF080C08DF0D1
:100BE80081C08EF082C08FF083C090F00A0E0001A1
:100BF800916F000E926F000E936F000E946F8EEC43
:100C080020F000018D51300F01012E6F00C1D9FF76
:100C180001C1DAFF2EC1DFFF004B012B2C07D8A042
:100C28002D072C29B2E12D29D8A4AFD702C1F6FF90
:100C380003C1F7FF024B032BF86A0800F5CF2EF12A
:100C48002E51D8A410EF00F000C1D9FF01C1DAFF7E
:100C5800000EDF6E12002FEC1DF057EC20F0F2ECC6
:100C680022F00C0EC2EC20F0000E0101526F000EB3
:100C7800516F000E836F000E846F000E856F000E9B
:100C8800866F000E7F6F000E806F000E816F000E62
:100C9800826F000E7B6F000E7C6F000E7D6F000E62
:100CA8007E6F000E776F000E786F000E796F000E62
:100CB8007A6F000E736F000E746F000E756F000E62
:100CC800766F000E746E000E736E000E726E000E5C
:100CD800716E000E506F000E4F6F000E706E000E9A
:100CE8006F6E000E6E6E000E6D6E0400000E53ECFB
:100CF8001FF0ADC0B8F0AEC0B9F0AFC0BAF0B0C028
:100D0800BBF0000E0001BC6F000EBD6FA00EBE6FE1
:100D1800410EBF6F57EC0BF0B8C083F1B9C084F136
:100D2800BAC085F1BBC086F1010E53EC1FF0ADC00F
:100D3800B8F0AEC0B9F0AFC0BAF0B0C0BBF0000EAA
:100D48000001BC6F000EBD6FA00EBE6F410EBF6FDD
:100D580057EC0BF0B8C07FF1B9C080F1BAC081F18F
:100D6800BBC082F1020E53EC1FF0ADC0B8F0AEC0AC
:100D7800B9F0AFC0BAF0B0C0BBF0000E0001BC6F54
:100D8800000EBD6FC80EBE6F420EBF6F57EC0BF062
:100D9800B8C07BF1B9C07CF1BAC07DF1BBC07EF1AF
:100DA800010E00018A6F010E6DEC21F0530E010156
:100DB800006F010E016FA80E026FFF0E036F7BC15B
:100DC80004F17CC105F17DC106F17EC107F109EC92
:100DD80000F0530E00018E6F010E8F6FF3EC20F0C0
:100DE800010E00018A6F0E0E6DEC21F0EC0E000171
:100DF8008E6FFF0E8F6FF3EC20F0020E00018A6FEA
:100E0800010E6DEC21F0530E0101006F010E016F10
:100E18009D0E026FFF0E036F83C104F184C105F1BB
:100E280085C106F186C107F109EC00F0530E0001F7
:100E38008E6F010E8F6FF3EC20F0020E00018A6FA7
:100E48000E0E6DEC21F082BA05D0FB0E01013B6F4E
:100E5800FF0E04D0FD0E01013B6FFF0E3C6F3BC13E
:100E68008EF03CC18FF0F3EC20F0020E00018A6F87
:100E7800100E6DEC21F082B405D0FB0E01013D6F20
:100E8800FF0E04D0FD0E01013D6FFF0E3E6F3DC108
:100E98008EF03EC18FF0F3EC20F0020E7318741040
:100EA800D8B455D0030E00018A6F010E6DEC21F005
:100EB80073507410D8B40CD06FC080F070C081F03B
:100EC800000E0001836F0A0E826F5FEC22F00BD0D8
:100ED8004FC180F050C181F0000E0001836F0A0EEF
:100EE800826F5FEC22F080C03FF181C040F1735007
:100EF8007410D8B405D0EE0E0101416FFF0E04D076
:100F0800F90E0101416FFF0E426F530E006F010E83
:100F1800016F890E026FFF0E036F7FC104F180C15C
:100F280005F181C106F182C107F141C108F142C151
:100F380009F13FC10AF140C10BF109EC00F0530E71
:100F480000018E6F010E8F6FF3EC20F020D0030E9E
:100F580000018A6F010E6DEC21F0530E0101006F44
:100F6800010E016FB30E026FFF0E036F7FC104F114
:100F780080C105F181C106F182C107F109EC00F0D9
:100F8800530E00018E6F010E8F6FF3EC20F0040EEC
:100F980000018A6F010E6DEC21F073507410D8B403
:100FA80013D073047410D8B405D0E20E0101456F54
:100FB800FF0E04D0DD0E0101456FFF0E466F45C1DF
:100FC80043F146C144F105D0E70E0101436FFF0E1E
:100FD800446F530E006F010E016FD20E026FFF0EA9
:100FE800036F43C104F144C105F109EC00F0530E4D
:100FF80000018E6F010E8F6FF3EC20F0040E0001DC
:101008008A6F0D0E6DEC21F0020E73187410D8A4BF
:1010180010D0530E0101006F010E016FCC0E026F4C
:10102800FF0E036F51C104F152C105F109EC00F044
:101038000BD0530E0101006F010E016FD80E026F25
:10104800FF0E036F09EC00F0530E00018E6F010EC6
:101058008F6FF3EC20F0020E73187410D8A43ED0F2
:10106800000E0001F26F000EF36F700EF46F420E67
:10107800F56F7FC1F6F080C1F7F081C1F8F082C149
:10108800F9F00EEC1CF00001D8A024D07FC1F2F0DA
:1010980080C1F3F081C1F4F082C1F5F0000EF66F63
:1010A800000EF76F200EF86F420EF96F0EEC1CF071
:1010B8000001D8A005D0000E0101486F020E04D02F
:1010C800000E0101486F010E476F47C171F048C11A
:1010D80072F004D0000E726E000E716E040E0001E4
:1010E8008A6F090E6DEC21F0020E73187410D8A4E3
:1010F8002BD071507210D8B413D071047210D8B4B8
:1011080005D0F00E01014B6FFF0E04D0F60E010161
:101118004B6FFF0E4C6F4BC149F14CC14AF105D0E2
:10112800F30E0101496FFF0E4A6F530E006F010E57
:10113800016FD50E026FFF0E036F49C104F14AC15A
:1011480005F109EC00F00BD0530E0101006F010E00
:10115800016FDA0E026FFF0E036F09EC00F0530EF9
:1011680000018E6F010E8F6FF3EC20F0020E7318E2
:101178007410D8A4BAD571507210D8A403D07AECE0
:1011880017F0B3D571047210D8A403D096EC18F0F8
:10119800ACD5000E0001F26F000EF36F000EF46F75
:1011A800000EF56F83C1E2F084C1E3F085C1E4F07D
:1011B80086C1E5F07BC194F07CC195F07DC196F0C5
:1011C8007EC197F0ECEC21F094C0DEF095C0DFF022
:1011D80096C0E0F097C0E1F0A8EC0EF0DEC0F6F0A3
:1011E800DFC0F7F0E0C0F8F0E1C0F9F00EEC1CF059
:1011F8000001D8B003D096EC18F077D57AEC17F048
:1012080074D50001D96F0001D9AF27D1D96DD95153
:10121800800A120FD8A0A5D0000E896F0A0E886F19
:10122800000E836F640E826FD951806F816B80BF0F
:1012380081071EEC20F080C086F081C087F099EC11
:101248001FF00001D89086378737D89086378737C0
:10125800240E8627000E87232D0E8625F66EFF0E98
:101268008721F76EF86A000EF8220900F5CFBCF066
:101278000900F5CFBDF00900F5CFBEF00A00F5CFA3
:10128800BFF0000E896F640E886FD951866F876B27
:1012980086BF870799EC1FF00001D89086378737FB
:1012A800D89086378737480E8627000E87232D0E5D
:1012B8008625F66EFF0E8721F76EF86A000EF82273
:1012C8000900F5CFB8F00900F5CFB9F00900F5CF5E
:1012D800BAF00A00F5CFBBF057EC0BF0B8C0D5F068
:1012E800B9C0D6F0BAC0D7F0BBC0D8F0D5C0B8F0F6
:1012F800D6C0B9F0D7C0BAF0D8C0BBF0000E000114
:10130800836F0A0E826FD951806F816B80BF81070E
:101318001EEC20F00001D89080378137D8908037B4
:1013280081372D0E8025F66EFF0E8121F76EF86A43
:10133800000EF8220900F5CFBCF00900F5CFBDF08A
:101348000900F5CFBEF00A00F5CFBFF057EC0BF05F
:10135800B8C0D1F0B9C0D2F0BAC0D3F0BBC0D4F095
:1013680012000001D951800A750FD8A05DD0000E77
:10137800896F0A0E886FD951866F876B86BF87077A
:1013880099EC1FF00001D89086378737D8908637B8
:101398008737240E8627000E87232D0E8625F66EA6
:1013A800FF0E8721F76EF86A000EF8220900F5CFC4
:1013B800B8F00900F5CFB9F00900F5CFBAF00A0086
:1013C800F5CFBBF0000E836F0A0E826FD951806F84
:1013D800816B80BF81071EEC20F00001D890803718
:1013E8008137D890803781372D0E8025F66EFF0E15
:1013F8008121F76EF86A000EF8220900F5CFBCF0DB
:101408000900F5CFBDF00900F5CFBEF00A00F5CF11
:10141800BFF057EC0BF0B8C0D1F0B9C0D2F0BAC0E9
:10142800D3F0BBC0D4F012000001D951040D2D0E29
:10143800F324F66EFF0EF420F76EF86A000EF82219
:101448000900F5CFD1F00900F5CFD2F00900F5CFAA
:10145800D3F00A00F5CFD4F01200D951800A120F48
:10146800D8A0A5D0000E896F0A0E886F000E836F72
:10147800640E826FD951806F816B80BF81071EEC2B
:1014880020F080C086F081C087F099EC1FF0000141
:10149800D89086378737D89086378737240E86279F
:1014A800000E8723F90E8625F66EFE0E8721F76E4D
:1014B800F86A000EF8220900F5CFBCF00900F5CF54
:1014C800BDF00900F5CFBEF00A00F5CFBFF0000E61
:1014D800896F640E886FD951866F876B86BF8707BF
:1014E80099EC1FF00001D89086378737D890863757
:1014F8008737480E8627000E8723F90E8625F66E55
:10150800FE0E8721F76EF86A000EF8220900F5CF63
:10151800B8F00900F5CFB9F00900F5CFBAF00A0024
:10152800F5CFBBF057EC0BF0B8C0D5F0B9C0D6F08A
:10153800BAC0D7F0BBC0D8F0D5C0B8F0D6C0B9F0A3
:10154800D7C0BAF0D8C0BBF0000E0001836F0A0EF6
:10155800826FD951806F816B80BF81071EEC20F0AC
:101568000001D89080378137D89080378137F90EBD
:101578008025F66EFE0E8121F76EF86A000EF822BD
:101588000900F5CFBCF00900F5CFBDF00900F5CF93
:10159800BEF00A00F5CFBFF057EC0BF0B8C0D1F0A1
:1015A800B9C0D2F0BAC0D3F0BBC0D4F01200000169
:1015B800D951800A750FD8A05DD0000E896F0A0E28
:1015C800886FD951866F876B86BF870799EC1FF0A4
:1015D8000001D89086378737D89086378737240E0A
:1015E8008627000E8723F90E8625F66EFE0E8721C4
:1015F800F76EF86A000EF8220900F5CFB8F0090076
:10160800F5CFB9F00900F5CFBAF00A00F5CFBBF075
:10161800000E836F0A0E826FD951806F816B80BF75
:1016280081071EEC20F00001D89080378137D890D0
:1016380080378137F90E8025F66EFE0E8121F76E10
:10164800F86A000EF8220900F5CFBCF00900F5CFC2
:10165800BDF00900F5CFBEF00A00F5CFBFF057EC9A
:101668000BF0B8C0D1F0B9C0D2F0BAC0D3F0BBC04B
:10167800D4F012000001D951040DF90EF324F66ECE
:10168800FE0EF420F76EF86A000EF8220900F5CF76
:10169800D1F00900F5CFD2F00900F5CFD3F00A0058
:1016A800F5CFD4F012000001BB51800BC46FBB51C1
:1016B800BB25CA6FBABFCA81CA51D8B40DD0CA29CE
:1016C800D8A408D0000EB86F000EB96F000EBA6F1C
:1016D800000EBB6FBA8F08D0000EB86F000EB96F3E
:1016E800000EBA6F000EBB6FBF51800BC41BBF51F9
:1016F800BF25C96FBEBFC981C951D8B40DD0C9298A
:10170800D8A408D0000EBC6F000EBD6F000EBE6FCF
:10171800000EBF6FBE8F08D0000EBC6F000EBD6FED
:10172800000EBE6F000EBF6FC951D8B403D0CA51A6
:10173800D8A409D0000EB86F000EB96F000EBA6FAA
:10174800000EBB6F1200BE51B803F3CFCFF0F4CF39
:10175800D0F0CF51C56FC66BC76BC86BD051CB6F7C
:10176800CC6BCD6BCE6BBD51B903F3CFCFF0F4CFBB
:10177800D0F0CF51C527000EC623C723C823D051A8
:10178800CB27000ECC23CD23CE23BC51BA03F3CFF5
:10179800CFF0F4CFD0F0CF51C527000EC623C72312
:1017A800C823D051CB27000ECC23CD23CE23C7C0CE
:1017B800C8F0C6C0C7F0C5C0C6F0C56BBC51B903F8
:1017C800F3CFCFF0F4CFD0F0CF51C527D051C623F7
:1017D800000EC723000EC823BD51B803F3CFCFF0C6
:1017E800F4CFD0F0CF51C527D051C623000EC72360
:1017F800000EC823C7C0C8F0C6C0C7F0C5C0C6F031
:10180800C56BBC51B803F3CFCFF0F4CFD0F0CF51B4
:10181800C527D051C623000EC723000EC823BE51CA
:10182800B903F3CFCFF0F4CFD0F0CF51CB27D051BD
:10183800CC23000ECD23000ECE23BD51BA03F3CF27
:10184800CFF0F4CFD0F0CF51CB27D051CC23000E1E
:10185800CD23000ECE23BE51BA03F3CFCFF0F4CF81
:10186800D0F0CF51C06FD051C16FC26BC36BC2C033
:10187800C3F0C1C0C2F0C0C0C1F0C06BC051CB271B
:10188800C151CC23C251CD23C351CE23C5C0C0F012
:10189800C6C0C1F0C7C0C2F0C8C0C3F0190E05D099
:1018A800D890C333C233C133C033E82EF9D7C051FF
:1018B800CB27C151CC23C251CD23C351CE23C7C09E
:1018C800C8F0C6C0C7F0C5C0C6F0C56BC951CAC00C
:1018D800C0F0C16BC027000EC123820EC025CF6F98
:1018E800FF0EC121D06F0FD0D890CB37CC37CD3772
:1018F800CE37C8BFCB81D890C537C637C737C837AA
:10190800CF07D8A0D007CDAFEFD7000EC96FC8AFAB
:1019180016D0FF0EC515C06FFF0EC615C16FFF0E9E
:10192800C715C26F7F0EC815C36FC051C111C21150
:10193800C311D8A402D0CBA102D0010EC96FC951DE
:10194800D8B41FD0010ECB27000ECC23CD23CE2335
:10195800CEA117D0CBC0C0F0CCC0C1F0CDC0C2F072
:10196800CEC0C3F0C335C333C233C133C033C0C0E4
:10197800CBF0C1C0CCF0C2C0CDF0C3C0CEF0CF4BCD
:10198800D02BD0BF0DD0D05103E1CF29D8A008D09B
:10199800000ECB6F000ECC6F800ECD6F7F0E20D067
:1019A800D0BF05D0D0510EE1CF05D8B00BD0000E76
:1019B800CB6F000ECC6F000ECD6F000ECE6F000EF9
:1019C800C46F0FD0CFC0CAF0FF0ECB17FF0ECC17D5
:1019D8007F0ECD17000ECE17CAB1CD8FD890CA3161
:1019E800CE6FC451CE13CBC0B8F0CCC0B9F0CDC0C7
:1019F800BAF0CEC0BBF012001250800B1B6E125012
:101A08001224216E11BE21802150D8B40DD0212876
:101A1800D8A408D0000E0F6E000E106E000E116EC6
:101A2800000E126E118E08D0000E0F6E000E106E92
:101A3800000E116E000E126E1650800B1B1A1650F7
:101A48001624206E15BE20802050D8B40DD0202832
:101A5800D8A408D0000E136E000E146E000E156E7A
:101A6800000E166E158E08D0000E136E000E146E42
:101A7800000E156E000E166E2050D8B403D02150FB
:101A8800D8A409D0000E0F6E000E106E000E116E55
:101A9800000E126E120015500F02F3CF26F0F4CF8D
:101AA80027F026501C6E1D6A1E6A1F6A2750226E78
:101AB800236A246A256A14501002F3CF26F0F4CF63
:101AC80027F026501C26000E1D221E221F222750FA
:101AD8002226000E23222422252213501102F3CF9E
:101AE80026F0F4CF27F026501C26000E1D221E22B9
:101AF8001F2227502226000E2322242225221EC020
:101B08001FF01DC01EF01CC01DF01C6A13501002EF
:101B1800F3CF26F0F4CF27F026501C2627501D229D
:101B2800000E1E22000E1F2214500F02F3CF26F0C3
:101B3800F4CF27F026501C2627501D22000E1E2207
:101B4800000E1F221EC01FF01DC01EF01CC01DF07D
:101B58001C6A13500F02F3CF26F0F4CF27F026505B
:101B68001C2627501D22000E1E22000E1F22155073
:101B78001002F3CF26F0F4CF27F026502226275064
:101B88002322000E2422000E252214501102F3CF26
:101B980026F0F4CF27F02650222627502322000EC5
:101BA8002422000E252215501102F3CF26F0F4CF7F
:101BB80027F02650176E2750186E196A1A6A19C02E
:101BC8001AF018C019F017C018F0176A1750222613
:101BD80018502322195024221A5025221CC017F00D
:101BE8001DC018F01EC019F01FC01AF0190E05D03C
:101BF800D8901A32193218321732E82EF9D71750FE
:101C0800222618502322195024221A5025221EC099
:101C18001FF01DC01EF01CC01DF01C6A205021C002
:101C280017F0186A1726000E1822820E1724266E3F
:101C3800FF0E1820276E0FD0D89022362336243670
:101C480025361FBE2280D8901C361D361E361F36FC
:101C58002606D8A0270624AEEFD7000E206E1FAEAA
:101C680016D0FF0E1C14176EFF0E1D14186EFF0EF3
:101C78001E14196E7F0E1F141A6E175018101910A3
:101C88001A10D8A402D022A002D0010E206E205033
:101C9800D8B41FD0010E2226000E2322242225228A
:101CA80025A017D022C017F023C018F024C019F0BF
:101CB80025C01AF01A341A3219321832173217C0DE
:101CC80022F018C023F019C024F01AC025F0264AC3
:101CD800272A27BE0DD0275003E12628D8A008D0F0
:101CE800000E226E000E236E800E246E7F0E20D012
:101CF80027BE05D027500EE12604D8B00BD0000E21
:101D0800226E000E236E000E246E000E256E000E4D
:101D18001B6E0FD026C021F0FF0E2216FF0E2316D1
:101D28007F0E2416000E251621B0248ED89021305F
:101D3800256E1B50251222C00FF023C010F024C0BE
:101D480011F025C012F012000001E151800BEE6F76
:101D5800E151E125F06FE0BFF081F051D8B40DD02A
:101D6800F029D8A408D0000EDE6F000EDF6F000E39
:101D7800E06F000EE16FE08F06D0000EDE6F000E00
:101D8800DF6F000EE06F000EE16FE551800BEF6F23
:101D9800EE51EF19D8A4EE8DE551E525EF6FE4BFBC
:101DA800EF81EF51D8B40DD0EF29D8A408D0000E98
:101DB800E26F000EE36F000EE46F000EE56FE48F34
:101DC80006D0000EE26F000EE36F000EE46F000E07
:101DD800E56FF051EF5DD8B022D0EEAD02D0800EA5
:101DE800EE1BF0C0F1F0EFC0F0F0F1C0EFF0DEC094
:101DF800F1F0E2C0DEF0F1C0E2F0DFC0F1F0E3C0E4
:101E0800DFF0F1C0E3F0E0C0F1F0E4C0E0F0F1C0D1
:101E1800E4F0E1C0F1F0E5C0E1F0F1C0E5F0000E5A
:101E2800F16FF051E66FE76BE61FE71FE64BE72B14
:101E3800EF51E86FE96BE651E827E751E923E9BF7D
:101E48002CD0E95104E11A0EE85DD8A026D0DE5165
:101E5800DF11E011E111D8B402D0010E01D0000E5B
:101E6800F16F000EDE6F000EDF6F000EE06F000EE8
:101E7800E16FEFC0F0F015D0F1A105D0D890F131A5
:101E88000109F16F02D0D890F133DEB1F18FE1355D
:101E9800E133E033DF33DE33F02BEF51F05DD8A0D0
:101EA800EBD7EEBD29D0F051D8A409D0000EDE6FD3
:101EB800000EDF6F000EE06F000EE16F1200E251BE
:101EC800DE27E351DF23E451E023E551E123E1A1DB
:101ED80083D0F1A106D0D890F133F1510109F16F07
:101EE80002D0D890F133DEB1F18FE135E133E03340
:101EF800DF33DE33F02B70D0E251DE5DE351DF5982
:101F0800E451E059E151800AE66FE551800AE6594B
:101F1800D8B036D0DEC0E6F0DFC0E7F0E0C0E8F0C9
:101F2800E1C0E9F0E61FE71FE81FE91FE62B000EF6
:101F3800E723E823E923E251E625EA6FE351E721A5
:101F4800EB6FE451E821EC6FE551E921ED6FFF0EED
:101F5800EA25DE6FFF0EEB21DF6FFF0EEC21E06F4D
:101F6800FF0EED21E16F800EEE1BF16DF151D8A44B
:101F78000FD0010EDE27000EDF23E023E12308D077
:101F8800E251DE5FE351DF5BE451E05BE551E15B89
:101F9800DE51DF11E011E111D8A41CD0F151D8A411
:101FA80019D0000EDE6F000EDF6F000EE06F000E1E
:101FB800E16F1200D890DE37DF37E037E137F1BF45
:101FC800DE81F1A102D0D88001D0D890F137F0514C
:101FD800D8A4F007E0AFEED7000EEF6FF1AF0AD04C
:101FE800F1C0E6F07F0EE617D8A402D0DEA102D039
:101FF800010EEF6FEF51D8B420D0010EDE27000E8E
:10200800DF23E023E123E1A118D0DEC0E6F0DFC042
:10201800E7F0E0C0E8F0E1C0E9F0E935E933E8339A
:10202800E733E633E6C0DEF0E7C0DFF0E8C0E0F013
:10203800E9C0E1F0F029D8A4F02BF029D8B403D0F6
:10204800F051D8A40DD0000EDE6F000EDF6F000E29
:10205800E06F000EE16FF051D8A402D0000EEE6FD1
:10206800F0A102D0E08F01D0E09FD890F031E16F6D
:10207800EEBFE18FDEC0DEF0DFC0DFF0E0C0E0F0F1
:10208800E1C0E1F012001650800B236E16501624A2
:10209800256E15BE25802550D8B40DD02528D8A486
:1020A80008D0000E136E000E146E000E156E000E92
:1020B800166E158E06D0000E136E000E146E000EEE
:1020C800156E000E166E1A50800B246E23502418BD
:1020D800D8A4238C1A501A24246E19BE24802450A4
:1020E800D8B40DD02428D8A408D0000E176E000E3E
:1020F800186E000E196E000E1A6E198E06D0000E9C
:10210800176E000E186E000E196E000E1A6E25500E
:10211800245CD8B022D023AC02D0800E231A25C06C
:1021280026F024C025F026C024F013C026F017C0DE
:1021380013F026C017F014C026F018C014F026C0FB
:1021480018F015C026F019C015F026C019F016C0F1
:1021580026F01AC016F026C01AF0000E266E25507A
:102168001B6E1C6A1B1E1C1E1B4A1C2A24501D6E3B
:102178001E6A1B501D261C501E221EBE2CD01E502F
:1021880004E11A0E1D5CD8A026D0135014101510A7
:102198001610D8B402D0010E01D0000E266E000E23
:1021A800136E000E146E000E156E000E166E24C00F
:1021B80025F015D026A005D0D89026300109266E26
:1021C80002D0D890263213B0268E16341632153225
:1021D80014321332252A2450255CD8A0EBD723BC0F
:1021E80029D02550D8A409D0000E136E000E146E05
:1021F800000E156E000E166E12001750132618509A
:102208001422195015221A50162216A083D026A07F
:1022180006D0D890263226500109266E02D0D890D2
:10222800263213B0268E1634163215321432133273
:10223800252A70D01750135C185014581950155887
:102248001650800A1B6E1A50800A1B58D8B036D018
:1022580013C01BF014C01CF015C01DF016C01EF0F2
:102268001B1E1C1E1D1E1E1E1B2A000E1C221D22AC
:102278001E2217501B241F6E18501C20206E195048
:102288001D20216E1A501E20226EFF0E1F24136E71
:10229800FF0E2020146EFF0E2120156EFF0E222047
:1022A800166E800E231A266C2650D8A40FD0010E65
:1022B8001326000E14221522162208D01750135E7A
:1022C8001850145A1950155A1A50165A13501410F7
:1022D80015101610D8A41CD02650D8A419D0000E5A
:1022E800136E000E146E000E156E000E166E1200A0
:1022F800D890133614361536163626BE138026A007
:1023080002D0D88001D0D89026362550D8A42506EA
:1023180015AEEED7000E246E26AE0AD026C01BF0EE
:102328007F0E1B16D8A402D013A002D0010E246E73
:102338002450D8B420D0010E1326000E14221522E2
:10234800162216A018D013C01BF014C01CF015C01C
:102358001DF016C01EF01E341E321D321C321B32F8
:102368001BC013F01CC014F01DC015F01EC016F0E1
:102378002528D8A4252A2528D8B403D02550D8A4A0
:102388000DD0000E136E000E146E000E156E000EAA
:10239800166E2550D8A402D0000E236E25A002D0B8
:1023A800158E01D0159ED8902530166E23BE168E38
:1023B80013C013F014C014F015C015F016C016F0B1
:1023C80012000600FACF4DF0FBCF4EF0E9CF4FF0E8
:1023D800EACF50F0E1CF51F0E2CF52F0D9CF53F02D
:1023E800DACF54F0F3CF55F0F4CF56F0F6CF57F0DC
:1023F800F7CF58F0F8CF59F0F5CF5AF07BC05BF023
:102408007CC05CF07DC05DF07EC05EF0A1A203D10F
:10241800CF504B6ECE5001014D6F4BC04EF1A19283
:10242800020E73187410D8A47AD071507210D8B4F0
:1024380019D0020E71187210D8A471D083C127F078
:1024480084C128F085C129F086C12AF07BC12BF010
:102458007CC12CF07DC12DF07EC12EF09FEC1CF0CC
:10246800D8B05DD07BC127F07CC128F07DC129F0B0
:102478007EC12AF083C117F084C118F085C119F014
:1024880086C11AF051C101F052C102F0036A046A10
:10249800000E37EC1AF001C00FF002C010F003C0B4
:1024A80011F004C012F033EC22F00FC013F010C08A
:1024B80014F011C015F012C016F047EC10F013C05C
:1024C8002BF014C02CF015C02DF016C02EF09FEC88
:1024D8001CF0D8B023D0000E416E000E426E000EE4
:1024E800436E000E446EF7EC1EF06D504B6E6E504E
:1024F8004C6E6D4A6E2A4C5006E1050E4B5CD8B006
:1025080002D0828A0CD06E5004E10B0E6D5CD8A00C
:1025180005D0000E6E6E000E6D6E01D0829A73505B
:102528007410D8B413D0020E73187410D8A404D041
:1025380071047210D8B40AD0020E73187410D8A49B
:1025480035D0020E71187210D8A430D0020E73184C
:102558007410D8A405D0020E71187210D8B40AD01D
:10256800000E416E000E426E000E436E000E446E69
:10257800F7EC1EF06D504B6E6E504C6E6D4A6E2A25
:1025880001014F514B5C50514C58D8B002D0828A4F
:102598003FD06E5006E10B0E6D5CD8B002D0829A27
:1025A80037D0000E6E6E000E6D6E32D0730474104C
:1025B800D8A42ED0829A6FC001F070C002F0036ACE
:1025C800046A000E37EC1AF001C00FF002C010F0D8
:1025D80003C011F004C012F0000E136E000E146E4A
:1025E800200E156E410E166E00EC0DF00FC05FF058
:1025F80010C060F011C061F012C062F05FC041F01D
:1026080060C042F061C043F062C044F0F7EC1EF0D5
:10261800C7EC22F02DD0F2A204D097EC22F0F2926F
:1026280027D0F0A012D073507410D8B4D0EC22F098
:1026380073047410D8B4EAEC22F0020E7318741004
:10264800D8B4D9EC22F0F09013D0F0A211D0735086
:102658007410D8B4A7EC22F073047410D8B4BDEC8D
:1026680022F0020E73187410D8B4B2EC22F0F09273
:102678005EC07EF05DC07DF05CC07CF05BC07BF02E
:102688005AC0F5FF59C0F8FF58C0F7FF57C0F6FF0A
:1026980056C0F4FF55C0F3FF54C0DAFF53C0D9FF4A
:1026A80052C0E2FF51C0E1FF50C0EAFF4FC0E9FF4E
:1026B8004EC0FBFF4DC0FAFF7B9211000001DD6F99
:1026C8006D0E0001DD65BAD0000E896F0A0E886FA5
:1026D800000E836F640E826FDDC080F0816B1EEC8C
:1026E80020F080C086F081C087F099EC1FF00001CF
:1026F800D89086378737D89086378737240E86272D
:10270800000E87232D0E8625F66EFF0E8721F76EA5
:10271800F86A000EF8220900F5CFBCF00900F5CFE1
:10272800BDF00900F5CFBEF00A00F5CFBFF0000EEE
:10273800896F640E886FDDC086F0876B99EC1FF097
:102748000001D89086378737D89086378737480E64
:102758008627000E87232D0E8625F66EFF0E87210D
:10276800F76EF86A000EF8220900F5CFB8F00900F4
:10277800F5CFB9F00900F5CFBAF00A00F5CFBBF0F4
:1027880057EC0BF0B8C0D9F0B9C0DAF0BAC0DBF03A
:10279800BBC0DCF0000E0001836F0A0E826FDDC043
:1027A80080F0816B1EEC20F00001D89080378137D3
:1027B800D890803781372D0E8025F66EFF0E812147
:1027C800F76EF86A000EF8220900F5CFBCF0090090
:1027D800F5CFBDF00900F5CFBEF00A00F5CFBFF088
:1027E800D9C0B8F0DAC0B9F0DBC0BAF0DCC0BBF0D1
:1027F80057EC0BF0B8C0D5F0B9C0D6F0BAC0D7F0D6
:10280800BBC0D8F0D5C0B8F0D6C0B9F0D7C0BAF0C0
:10281800D8C0BBF0000E0001BC6F000EBD6F000EEB
:10282800BE6F3F0EBF6F57EC0BF0B8C0D1F0B9C008
:10283800D2F0BAC0D3F0BBC0D4F012000A0E000127
:10284800DD6574D0000E836F0A0E826FDDC080F0E4
:10285800816B1EEC20F00001D89080378137D8902A
:10286800803781372D0E8025F66EFF0E8121F76E99
:10287800F86A000EF8220900F5CFBCF00900F5CF80
:10288800BDF00900F5CFBEF00A00F5CFBFF0000E8D
:10289800896F0A0E886FDDC086F0876B99EC1FF090
:1028A8000001D89086378737D89086378737240E27
:1028B8008627000E87232D0E8625F66EFF0E8721AC
:1028C800F76EF86A000EF8220900F5CFB8F0090093
:1028D800F5CFB9F00900F5CFBAF00A00F5CFBBF093
:1028E80057EC0BF0B8C0D9F0B9C0DAF0BAC0DBF0D9
:1028F800BBC0DCF0D9C0B8F0DAC0B9F0DBC0BAF0C0
:10290800DCC0BBF0000E0001BC6F000EBD6F000EF6
:10291800BE6F3F0EBF6F57EC0BF0B8C0D1F0B9C017
:10292800D2F0BAC0D3F0BBC0D4F012000001DD5120
:10293800040D2D0EF324F66EFF0EF420F76EF86AE0
:10294800000EF8220900F5CFB8F00900F5CFB9F06C
:102958000900F5CFBAF00A00F5CFBBF0000EBC6F46
:10296800000EBD6F000EBE6F3F0EBF6F57EC0BF031
:10297800B8C0D1F0B9C0D2F0BAC0D3F0BBC0D4F05F
:10298800120000019751800BA06F97519725AB6FEC
:1029980096BFAB81AB51D8B40DD0AB29D8A408D021
:1029A800000E946F000E956F000E966F000E976FD5
:1029B800968F06D0000E946F000E956F000E966FDE
:1029C800000E976F9B51800BA01B9B519B25AC6FF2
:1029D8009ABFAC81AC51D8B40DD0AC29D8A408D0DA
:1029E800000E986F000E996F000E9A6F000E9B6F85
:1029F8009A8F06D0000E986F000E996F000E9A6F8E
:102A0800000E9B6F985199119A119B11D8A415D05B
:102A1800000E946F000E956F000E966F000E976F64
:102A2800800E96137F0E971394C094F095C095F07E
:102A380096C096F097C097F01200AB51D8A411D069
:102A4800000E946F000E956F000E966F000E976F34
:102A580094C094F095C095F096C096F097C097F002
:102A68001200AC519C6F9D6B9C1F9D1F9C4B9D2B16
:102A7800AB519E6F9F6B9C519E279D519F237F0E4C
:102A88009E25A56F000E9F21A66F94C0A1F095C04A
:102A9800A2F096C0A3F097C0A4F0000E946F000EA9
:102AA800956F000E966F000E976F000EA76F000EC1
:102AB800A86F000EA96F000EAA6F000EAC6F28D089
:102AC800AC51D8B411D0D890A137A237A337A437C6
:102AD800D8909437953796379737AABF9481D8906E
:102AE800A737A837A937AA379851A15D9951A25994
:102AF8009A51A3599B51A459D8A009D0AA8D98518D
:102B0800A15F9951A25B9A51A35B9B51A45BAC2B2B
:102B1800190EAC65D5D7A151A211A311A411D8B42F
:102B280011D0A7810FD0D89094379537963797371B
:102B3800AABF9481D890A737A837A937AA37A5077D
:102B4800D8A0A60796AFEFD7000EAC6FAAAF16D0E5
:102B5800FF0EA7159C6FFF0EA8159D6FFF0EA915F8
:102B68009E6F7F0EAA159F6F9C519D119E119F11FC
:102B7800D8A402D094A102D0010EAC6FAC51D8B445
:102B88001FD0010E9427000E95239623972397A113
:102B980017D094C09CF095C09DF096C09EF097C049
:102BA8009FF09F359F339E339D339C339CC094F098
:102BB8009DC095F09EC096F09FC097F0A54BA62BA0
:102BC800A6BF10D0A65103E1A529D8A00BD0000EAE
:102BD800A66FA569000E946F000E956F000E966F94
:102BE800000E976FA6BF05D0A65111E1A505D8B074
:102BF8000ED0000EA66F000EA56F000E946F000E8B
:102C0800956F000E966F000E976F000EA06FA5C00F
:102C1800ABF0ABA102D0968F01D0969FD890AB3184
:102C2800976FA051971394C094F095C095F096C0F3
:102C380096F097C097F012002B50800B346E2B50F3
:102C48002B243F6E2ABE3F803F50D8B40DD03F287A
:102C5800D8A408D0000E286E000E296E000E2A6E29
:102C6800000E2B6E2A8E06D0000E286E000E296EDE
:102C7800000E2A6E000E2B6E2F50800B341A2F5028
:102C88002F24406E2EBE40804050D8B40DD040282E
:102C9800D8A408D0000E2C6E000E2D6E000E2E6EDD
:102CA800000E2F6E2E8E06D0000E2C6E000E2D6E8E
:102CB800000E2E6E000E2F6E2C502D102E102F1081
:102CC800D8A415D0000E286E000E296E000E2A6EAC
:102CD800000E2B6E800E2A127F0E2B1228C028F0B1
:102CE80029C029F02AC02AF02BC02BF012003F502F
:102CF800D8A411D0000E286E000E296E000E2A6E80
:102D0800000E2B6E28C028F029C029F02AC02AF00E
:102D18002BC02BF012004050306E316A301E311E2D
:102D2800304A312A3F50326E336A305032263150A1
:102D380033227F0E3224396E000E33203A6E28C0BB
:102D480035F029C036F02AC037F02BC038F0000E15
:102D5800286E000E296E000E2A6E000E2B6E000ED5
:102D68003B6E000E3C6E000E3D6E000E3E6E000E79
:102D7800406E28D04050D8B411D0D8903536363669
:102D880037363836D890283629362A362B363EBE7E
:102D98002880D8903B363C363D363E362C50355C44
:102DA8002D5036582E5037582F503858D8A009D0A3
:102DB8003E8C2C50355E2D50365A2E50375A2F5097
:102DC800385A402A190E4064D5D735503610371076
:102DD8003810D8B411D03B800FD0D8902836293677
:102DE8002A362B363EBE2880D8903B363C363D36B8
:102DF8003E363906D8A03A062AAEEFD7000E406E06
:102E08003EAE16D0FF0E3B14306EFF0E3C14316EF2
:102E1800FF0E3D14326E7F0E3E14336E305031106B
:102E280032103310D8A402D028A002D0010E406E70
:102E38004050D8B41FD0010E2826000E29222A227D
:102E48002B222BA017D028C030F029C031F02AC07F
:102E580032F02BC033F03334333232323132303245
:102E680030C028F031C029F032C02AF033C02BF02E
:102E7800394A3A2A3ABE10D03A5003E13928D8A044
:102E88000BD0000E3A6E3968000E286E000E296EBF
:102E9800000E2A6E000E2B6E3ABE05D03A5011E194
:102EA8003904D8B00ED0000E3A6E000E396E000EFE
:102EB800286E000E296E000E2A6E000E2B6E000E74
:102EC800346E39C03FF03FA002D02A8E01D02A9E2E
:102ED800D8903F302B6E34502B1228C028F029C0D0
:102EE80029F02AC02AF02BC02BF0120083C194F0DD
:102EF80084C195F085C196F086C197F0ECEC21F07D
:102F080094C0DEF095C0DFF096C0E0F097C0E1F025
:102F18007BC1E2F07CC1E3F07DC1E4F07EC1E5F065
:102F2800A8EC0EF0DEC077F1DFC078F1E0C079F1EF
:102F3800E1C07AF1000E0101506F000E4F6F000ED4
:102F48000001F26F000EF36F000EF46F000EF56FC4
:102F580077C1F6F078C1F7F079C1F8F07AC1F9F0E5
:102F68000EEC1CF00001D8B09CD077C1B8F078C145
:102F7800B9F079C1BAF07AC1BBF0000EBC6F000E8F
:102F8800BD6F200EBE6F410EBF6F57EC0BF0B8C07F
:102F980037F1B9C038F1BAC039F1BBC03AF137C11D
:102FA800F2F038C1F3F039C1F4F03AC1F5F0000E8F
:102FB8000001F66F000EF76FC80EF86F410EF96F3B
:102FC8000EEC1CF00001D8A009D037C133F138C18C
:102FD80034F139C135F13AC136F109D0000E010199
:102FE800336F000E346FC80E356F410E366F33C124
:102FF800FCF034C1FDF035C1FEF036C1FFF097ECAE
:103008001EF0030E00018A6F0B0E6DEC21F04DC10E
:1030180080F04EC181F0000E0001836F280E826F90
:103028005FEC22F0000180C086F081C087F0886BD9
:10303800896B000E8DEC19F086C094F087C095F06E
:1030480088C096F089C097F0000E0001986F000EB6
:10305800996FE00E9A6F400E9B6FC5EC14F094C008
:103068002FF195C030F196C031F197C032F1530E6F
:103078000101006F010E016FBD0E026FFF0E036F9D
:103088002FC104F130C105F131C106F132C107F198
:1030980009EC00F0530E00018E6F010E8F6FF3ECF8
:1030A80020F07BC1F2F07CC1F3F07DC1F4F07EC169
:1030B800F5F083C1E2F084C1E3F085C1E4F086C194
:1030C800E5F051C186F052C187F00001886B896B29
:1030D800000E8DEC19F086C094F087C095F088C07A
:1030E80096F089C097F0ECEC21F094C0DEF095C022
:1030F800DFF096C0E0F097C0E1F0A8EC0EF0DEC07B
:10310800F6F0DFC0F7F0E0C0F8F0E1C0F9F00EEC3F
:103118001CF00001D8B01200000E0101506F050E1E
:103128004F6F1200000E0001FC6F000EFD6F000EC5
:10313800FE6F000EFF6F97EC1EF07BC194F07CC110
:1031480095F07DC196F07EC197F0ECEC21F094C02B
:10315800DEF095C0DFF096C0E0F097C0E1F083C1E3
:10316800E2F084C1E3F085C1E4F086C1E5F0A8ECA3
:103178000EF0DEC073F1DFC074F1E0C075F1E1C09C
:1031880076F1000E0001F26F000EF36F000EF46F7F
:10319800000EF56F73C1F6F074C1F7F075C1F8F061
:1031A80076C1F9F00EEC1CF00001D8B03AD073C12A
:1031B800F2F074C1F3F075C1F4F076C1F5F0BAEC31
:1031C8001DF0F2C04FF1F3C050F10101505108E178
:1031D800050E4F5DD8B004D0000E506F050E4F6F2E
:1031E80050511AE10B0E4F5DD8B016D0000E0001F9
:1031F800F26F000EF36F500EF46F420EF56F83C13D
:10320800F6F084C1F7F085C1F8F086C1F9F00EEC4C
:103218001CF00001D8B03BD0000E0101506F0A0E1F
:1032280035D083C1E2F084C1E3F085C1E4F086C102
:10323800E5F051C186F052C187F00001886B896BB7
:10324800000E8DEC19F086C0DEF087C0DFF088C074
:10325800E0F089C0E1F0A8EC0EF0DEC0F2F0DFC0CB
:10326800F3F0E0C0F4F0E1C0F5F07BC1F6F07CC10A
:10327800F7F07DC1F8F07EC1F9F00EEC1CF000010A
:10328800D8B005D0000E0101506F000E4F6F030E2D
:1032980000018A6F0B0E6DEC21F0480EC2EC20F095
:1032A800030E00018A6F0F0E6DEC21F0DA0E00019B
:1032B8008E6FFF0E8F6FF3EC20F0030E00018A6F04
:1032C8000D0E6DEC21F04FC180F050C181F0000E61
:1032D8000001836F0A0E826F5FEC22F080C02FF12D
:1032E80081C030F1530E0101006F010E016FCF0E46
:1032F800026FFF0E036F2FC104F130C105F109EC15
:1033080000F0530E00018E6F010E8F6FF3EC20F06A
:10331800120000018E6F00018E51D8A489AF1AD017
:1033280086C08AF087C08BF088C08CF089C08DF089
:103338008A1F8B1F8C1F8D1F8A2B000E8B238C23BB
:103348008D238AC090F08BC091F08CC092F08DC014
:1033580093F008D086C090F087C091F088C092F0B2
:1033680089C093F08651871188118911D8A409D092
:10337800000E866F000E876F000E886F000E896F33
:103388001200960E8F6F06D08F2BD89093339233FE
:1033980091339033000E90158A6F000E91158B6F44
:1033A800000E92158C6FFE0E93158D6F8A518B113E
:1033B8008C118D11D8B40DD0E7D78F2B010E902723
:1033C800000E912392239323D89093339233913311
:1033D8009033000E90158A6F000E91158B6F000EBA
:1033E80092158C6FFF0E93158D6F8A518B118C116E
:1033F8008D11D8B407D0E1D78F07D890903791377F
:103408009237933792BF03D0020E8F61F5D78FB1F1
:1034180008D0FF0E9017FF0E91177F0E9217FF0E20
:103428009317D8908F338FC08AF08B6B8C6B8D6B12
:103438008AC08DF08C6B8B6B8A6B8A5190138B5181
:1034480091138C5192138D5193138E51D8A489AF37
:1034580001D0938F90C086F091C087F092C088F019
:1034680093C089F01200096E0950D8A404AE1AD08E
:1034780001C005F002C006F003C007F004C008F060
:10348800051E061E071E081E052A000E0622072214
:10349800082205C00BF006C00CF007C00DF008C0EC
:1034A8000EF008D001C00BF002C00CF003C00DF004
:1034B80004C00EF00150021003100410D8A409D063
:1034C800000E016E000E026E000E036E000E046EFA
:1034D8001200960E0A6E06D00A2AD8900E320D32C5
:1034E8000C320B32000E0B14056E000E0C14066E17
:1034F800000E0D14076EFE0E0E14086E0550061011
:1035080007100810D8B40DD0E7D70A2A010E0B26E9
:10351800000E0C220D220E22D8900E320D320C32E3
:103528000B32000E0B14056E000E0C14066E000E06
:103538000D14076EFF0E0E14086E055006100710C6
:103548000810D8B407D0E1D70A06D8900B360C3645
:103558000D360E360DBE03D0020E0A60F5D70AB03E
:1035680008D0FF0E0B16FF0E0C167F0E0D16FF0E61
:103578000E16D8900A320AC005F0066A076A086A69
:1035880005C008F0076A066A056A05500B1206505E
:103598000C1207500D1208500E120950D8A404AE90
:1035A80001D00E8E0BC001F00CC002F00DC003F06C
:1035B8000EC004F0120082C088F00001896B8A6B8B
:1035C8008135883701E389818851906F9051D8A45B
:1035D80009D0000E806F000E816F000E826F000E02
:1035E800836F120086C088F0896B8A6B85358837AF
:1035F80001E3898188518F6F8F51D8A409D0000EBB
:10360800806F000E816F000E826F000E836F1200B4
:10361800818FFF0E8017FF0E8117000E8217858F8E
:10362800FF0E8417FF0E8517000E8617000E8B6F8E
:10363800000E8C6F000E8D6F000E8E6F7F0E905FE8
:103648008F51980F905F180E8F6FD8908B378C37EB
:103658008D378E378451805D8551815986518259C5
:10366800D8A007D08451805F8551815B8651825BE9
:103678008B81D8908037813782378F2FE6D790AFEC
:1036880016D09051800A970FD8B009D0000E806FDD
:10369800000E816F000E826F000E836F1200D890AB
:1036A8008E338D338C338B33903FF9D715D0170E6B
:1036B80090650FD0000E806F000E816F000E826F34
:1036C800000E836F1200D8908B378C378D378E376A
:1036D80090079051D8A4F7D78BC080F08CC081F0A8
:1036E8008DC082F08EC083F01200000182358335D0
:1036F8008D6F8D51D8A409D0000E806F000E816F98
:10370800000E826F000E836F1200863587358C6F2E
:103718008C51D8A409D0000E806F000E816F000E66
:10372800826F000E836F1200828FFF0E8017FF0ECC
:103738008117FF0E8217000E8317868FFF0E8417DE
:10374800FF0E8517FF0E8617000E8717000E886F6D
:10375800000E896F000E8A6F000E8B6F7F0E8D5FD3
:103768008C51A00F8D5F200E8C6FD89088378937C9
:103778008A378B378451805D8551815986518259AA
:1037880087518359D8A009D08451805F8551815BC6
:103798008651825B8751835B8881D89080378137D7
:1037A800823783378C2FE1D78DAF16D08D51800AA1
:1037B8009F0FD8B009D0000E806F000E816F000EE9
:1037C800826F000E836F1200D8908B338A3389334F
:1037D80088338D3FF9D715D01F0E8D650FD0000E99
:1037E800806F000E816F000E826F000E836F1200D3
:1037F800D890883789378A378B378D078D51D8A469
:10380800F7D788C080F089C081F08AC082F08BC069
:1038180083F01200000E0001F215FA6F000EF31586
:10382800FB6F800EF415FC6F7F0EF515FD6FFA51D6
:10383800FB11FC11FD11D8A408D0000EF26F000E88
:10384800F36F000EF46F000EF56F000EF615FA6FA9
:10385800000EF715FB6F800EF815FC6F7F0EF9153B
:10386800FD6FFA51FB11FC11FD11D8A408D0000E10
:10387800F66F000EF76F000EF86F000EF96FF5AFD8
:103888001DD0F2C0FAF0F3C0FBF0F4C0FCF0F5C0B4
:10389800FDF0FA1FFB1FFC1FFD1FFA2B000EFB2378
:1038A800FC23FD23000EFA25F26F000EFB21F36FB7
:1038B800000EFC21F46F800EFD21F56FF9AF1DD0CD
:1038C800F6C0FAF0F7C0FBF0F8C0FCF0F9C0FDF064
:1038D800FA1FFB1FFC1FFD1FFA2B000EFB23FC2306
:1038E800FD23000EFA25F66F000EFB21F76F000E80
:1038F800FC21F86F800EFD21F96F000EF21B000EFF
:10390800F31B000EF41B800EF51B000EF61B000EB9
:10391800F71B000EF81B800EF91BF651F25DF751EC
:10392800F359F851F459F951F559D8B002D0D89053
:103938001200D8801200000E27142F6E000E2814D3
:10394800306E800E2914316E7F0E2A14326E2F507D
:10395800301031103210D8A408D0000E276E000E97
:10396800286E000E296E000E2A6E000E2B142F6E84
:10397800000E2C14306E800E2D14316E7F0E2E1416
:10398800326E2F50301031103210D8A408D0000EEB
:103998002B6E000E2C6E000E2D6E000E2E6E2AAEB3
:1039A8001DD027C02FF028C030F029C031F02AC020
:1039B80032F02F1E301E311E321E2F2A000E3022EA
:1039C80031223222000E2F24276E000E3020286E5E
:1039D800000E3120296E800E32202A6E2EAE1DD0A8
:1039E8002BC02FF02CC030F02DC031F02EC032F09B
:1039F8002F1E301E311E321E2F2A000E3022312279
:103A08003222000E2F242B6E000E30202C6E000E5A
:103A180031202D6E800E32202E6E000E271A000ED9
:103A2800281A000E291A800E2A1A000E2B1A000EC8
:103A38002C1A000E2D1A800E2E1A2B50275C2C5093
:103A480028582D5029582E502A58D8B002D0D8902E
:103A58001200D8801200000EC26E0C0EC16E926861
:103A68009368800E946E000E956E000E966E000E92
:103A7800836E000E9D6EAECF80F0B896000EAC6ED1
:103A8800190EAF6EAC84AC8A000EAB6EAB88AB8EF1
:103A9800CD82CD80CD9ACD98B19AB198B184B198A4
:103AA800B19AB18E000ECF6E000ECE6E400EB36E80
:103AB800000EB26EB180B192A082A282D08EF28C3A
:103AC800F28EF28EF28CF28A000EF16E000EF06E1B
:103AD800F18CF18AF086F08894808294829A000EA4
:103AE8000101526F000E516F000E836F000E846F3C
:103AF800000E856F000E866F000E7F6F000E806FC0
:103B0800000E816F000E826F000E7B6F000E7C6FBF
:103B1800000E7D6F000E7E6F000E776F000E786FBF
:103B2800000E796F000E7A6F000E736F000E746FBF
:103B3800000E756F000E766F000E746E000E736EB9
:103B4800000E726E000E716E000E506F000E4F6FF9
:103B5800000E706E000E6F6E000E6E6E000E6D6EB3
:103B6800D09EF28AF288E2EC22F012000001F435CD
:103B7800F535FB6FFB51D8A409D0000EF26F000E8B
:103B8800F36F000EF46F000EF56F1200F2C0F6F03E
:103B9800F3C0F7F0F4C0F8F0F5C0F9F0200E05D046
:103BA800D890F933F833F733F633E82EF9D7F651CE
:103BB800FA6FF48FFF0EF217FF0EF317FF0EF417CC
:103BC800000EF517960EFB5FFBAF16D0FB51800A6F
:103BD800970FD8B009D0000EF26F000EF36F000EE9
:103BE800F46F000EF56F1200D890F533F433F33309
:103BF800F233FB3FF9D715D01F0EFB650FD0000E2F
:103C0800F26F000EF36F000EF46F000EF56F1200E6
:103C1800D890F237F337F437F537FB07FB51D8A4C0
:103C2800F7D7FA51D8B408D0F51FF41FF31FF26D77
:103C3800000EF323F423F523F2C0F2F0F3C0F3F0FF
:103C4800F4C0F4F0F5C0F5F0120029342A34306ECF
:103C58003050D8A409D0000E276E000E286E000E32
:103C6800296E000E2A6E120027C02BF028C02CF0F7
:103C780029C02DF02AC02EF0200E05D0D8902E3263
:103C88002D322C322B32E82EF9D72B502F6E298E5D
:103C9800FF0E2716FF0E2816FF0E2916000E2A16ED
:103CA800960E305E30AE16D03050800A970FD8B0DE
:103CB80009D0000E276E000E286E000E296E000E29
:103CC8002A6E1200D8902A32293228322732303E02
:103CD800F9D715D01F0E30640FD0000E276E000ED6
:103CE800286E000E296E000E2A6E1200D890273614
:103CF800283629362A3630063050D8A4F7D72F5020
:103D0800D8B408D02A1E291E281E276C000E282287
:103D180029222A2227C027F028C028F029C029F004
:103D28002AC02AF01200000E0001BC6FC00EBD6F41
:103D38007F0EBE6F440EBF6FFCC0B8F0FDC0B9F077
:103D4800FEC0BAF0FFC0BBF057EC0BF0B8C094F05F
:103D5800B9C095F0BAC096F0BBC097F0000E00014C
:103D6800986F000E996FC80E9A6F420E9B6FC5EC44
:103D780014F094C000F195C001F196C002F197C00B
:103D880003F1000E0001E26F000EE36F000EE46F16
:103D98003F0EE56F00C1DEF001C1DFF002C1E0F0C7
:103DA80003C1E1F0A8EC0EF0DEC0F2F0DFC0F3F0E2
:103DB800E0C0F4F0E1C0F5F0BAEC1DF0F2C004F197
:103DC800F3C005F1010105BF07D0040E055DD8A0B9
:103DD80003D0030E056F046904C180F005C181F0AA
:103DE80004EC22F01200000E136EC00E146E7F0E4B
:103DF800156E440E166E41C00FF042C010F043C05D
:103E080011F044C012F000EC0DF00FC028F010C003
:103E180029F011C02AF012C02BF0000E2C6E000EF3
:103E28002D6EC80E2E6E420E2F6E20EC16F028C096
:103E380045F029C046F02AC047F02BC048F0000ED4
:103E4800176E000E186E000E196E3F0E1A6E45C0E2
:103E580013F046C014F047C015F048C016F047EC00
:103E680010F013C027F014C028F015C029F016C0B0
:103E78002AF029EC1EF027C049F028C04AF04ABEB3
:103E880007D0040E4A5CD8A003D0030E4A6E4968D6
:103E980049C001F04AC002F01CEC22F012000001F7
:103EA800B76F0001B751B2EC21F080C0B5F081C006
:103EB800B6F0B5C080F0B6C081F0000E0001836F87
:103EC800050E826F5FEC22F0000180C086F081C091
:103ED80087F0000E87BFFF0E886F896F010E8DEC8B
:103EE80019F086C094F087C095F088C096F089C014
:103EF80097F0000E0001986FC00E996F7F0E9A6FB1
:103F0800440E9B6FC5EC14F094C0B1F095C0B2F0AC
:103F180096C0B3F097C0B4F0B1C0ADF0B2C0AEF087
:103F2800B3C0AFF0B4C0B0F01200000E00018B6F48
:103F380089AF06D0886D891FD8B0892B010E8B6F89
:103F480087AF06D0866D871FD8B0872B010E8B1BD5
:103F5800000E8D6F000E8C6F88518911D8B41CD05B
:103F6800010E8A6F04D0D890883789378A2B89AF99
:103F7800FAD7D8908C378D378851865D8951875903
:103F8800D8A005D08851865F8951875B8C81D890ED
:103F9800893388338A2FEDD78B51D8B404D08C6DF0
:103FA8008D1FD8B08D2B8CC086F08DC087F0120085
:103FB800000E0001886F000E896F000E8A6F000ED8
:103FC8008B6F8451851186118711D8B42AD0010EC0
:103FD8008C6F06D0D89084378537863787378C2BF7
:103FE80087AFF8D7D890883789378A378B37845185
:103FF800805D855181598651825987518359D8A04E
:1040080009D08451805F8551815B8651825B8751DD
:10401800835B8881D89087338633853384338C2FAC
:10402800E1D788C080F089C081F08AC082F08BC057
:1040380083F01200000E0001856F81AF06D0806DFD
:10404800811FD8B0812B010E856F83AF04D0826D9C
:10405800831FD8B0832B82518311D8B418D0010E96
:10406800846F04D0D89082378337842B83AFFAD7F4
:104078008251805D83518159D8A004D08251805FDC
:104088008351815BD89083338233842FF1D7855154
:10409800D8B404D0806D811FD8B0812B80C080F047
:1040A80081C081F0120084948492000E0001816F17
:1040B800190E806F4AEC22F0010E00018A6F030E80
:1040C8008A6501D00DD0030E73EC22F0000E0001BA
:1040D800816F060E806F4AEC22F000018A2BEFD721
:1040E800020E73EC22F0000E00018A6F030E8A653F
:1040F80001D012008A51010D750EF324D96E000EFD
:10410800F420DA6EDF50886F000E1FEC21F00001FA
:104118008A2BECD700019151921193119411D8B4C4
:1041280024D0010E956F06D0D890913792379337E7
:104138009437952B94AFF8D791518D5D92518E5944
:1041480093518F5994519059D8A008D091518D5FAF
:1041580092518E5B93518F5B9451905BD8909433BE
:10416800933392339133952FE7D78DC08DF08EC05E
:104178008EF08FC08FF090C090F0120000018D6F0C
:1041880022D0010E0001886F000E1FEC21F0000EF6
:104198000001816F020E806F4AEC22F01200020EBD
:1041A80000018A6F010E6DEC21F01200100E000163
:1041B800886F000E1FEC21F012008DC088F0010EF0
:1041C8001FEC21F0120000018D51080AD8B4EED777
:1041D800020AD8B4E4D7060AD8B4D3D7EED716D093
:1041E8008EC0F6FF8FC0F7FF000EF86E0F0EF76453
:1041F80003D00800F55005D0F6CFE9FFF7CFEAFF66
:10420800EF50C2EC20F000018E4B8F2B8EC0F6FFD2
:104218008FC0F7FF000EF86E0F0EF76403D008008A
:10422800F55005D0F6CFE9FFF7CFEAFFEF500009C8
:10423800D8B41200D5D70001896F000189B102D026
:10424800849401D08484010ED2EC21F0010ED2ECCA
:1042580021F08492000188390F0B73EC22F00001E1
:1042680088510F0B73EC22F000018951D8B405D0A6
:10427800320E0400E82EFDD71200000E0001816FF7
:10428800020E806F4AEC22F01200000E0001F61BAD
:10429800000EF71B000EF81B800EF91BF2C0DEF0B3
:1042A800F3C0DFF0F4C0E0F0F5C0E1F0F6C0E2F0F2
:1042B800F7C0E3F0F8C0E4F0F9C0E5F0A8EC0EF0C0
:1042C800DEC0F2F0DFC0F3F0E0C0F4F0E1C0F5F0DA
:1042D800120000018B6F0AD0800E000105D0C00EBD
:1042E80003D0900E01D0D00E8C6F0ED000018A51F1
:1042F800010AD8B4F1D7030AD8B4F1D7010AD8B45F
:10430800F0D7070AD8B4EFD78B058C278C518009D2
:10431800886F000E1FEC21F01200F00EF66E450EAD
:10432800F76E000EF86E00EE75F010EE06F009005C
:10433800F5CFEEFFE550E150FAE101EE4DF0260E23
:10434800EE6AE806FDE100EE63F0120EEE6AE8069A
:10435800FDE17B907B9200012FEF06F00001866F54
:1043680086C082F0000182478247C2508219C30B7F
:104378008219C26EC282C2B2FED7C350C4CF82F0C5
:104388000001836B82C083F0826B8211846F83513A
:10439800856F84C080F085C081F012000001836FB2
:1043A800000E0001856F000E846F04D00400000128
:1043B800844B852B8351806F816B8451805D815143
:1043C800800A826F8551800A8259D8A01200EED7E0
:1043D80000019451951196119711D8B408D0000E88
:1043E800941B000E951B000E961B800E971B94C005
:1043F80094F095C095F096C096F097C097F012008B
:1044080080C082F081C083F00001D890833382336A
:10441800D890833382338251BE6E80C082F0030EFF
:104428008217823BBD508219CF0B8219BD6E1200D4
:1044380001C003F002C004F0D89004320332D890CF
:10444800043203320350BE6E01C003F0030E03169C
:10445800033ABD500318CF0B0318BD6E12000F505E
:10446800101011101210D8B408D0000E0F1A000E38
:10447800101A000E111A800E121A0FC00FF010C079
:1044880010F011C011F012C012F01200000E00015D
:10449800836F000E826F08D0C80E04000400E82E57
:1044A800FCD70001824B832B8051825D8151835957
:1044B800D8B01200F1D7000180518203F3CF84F005
:1044C800F4CF85F080518303F3508527815182030F
:1044D800F350852784C080F085C081F01200000168
:1044E800876F87C086F00001863B835086190F0BC3
:1044F8008619836E010ED2EC21F08482040000F04C
:10450800849212000001826F000E0001816F3A0E42
:10451800826105D02F0E826502D0010E816F81C0A5
:1045280080F080311200734A742A030E73187410D5
:10453800D8A404D0000E746E000E736E000E6E6E5A
:10454800000E6D6E12000101505107E10A0E4F5D19
:10455800D8B012004F4B502B1200120001015251DB
:1045680007E1050E515DD8B01200514B522B1200D5
:104578001200705007E10A0E6F5CD8B012006F4A43
:10458800702A12001200000ECF6E000ECE6E9E0E24
:10459800B36E580EB26E120001014F515011D8B4CB
:1045A80012004F07D8A050071200010151515211B3
:1045B800D8B412005107D8A052071200CB68000ED9
:1045C800CA6E0C0EBD6ECA84949412006F5070109F
:1045D800D8B412006F06D8A070061200000EC26E82
:0E45E800C280890EC06E1200280C0106010070
:10FEF800000000803F000020410000C84200007A56
:10FF08004400401C460050C347002474498096189A
:10FF18004B20BCBE4C286B6E4EF9021550EC78ADE8
:10FF280060CAF249710000803FCDCCCC3D0AD7238E
:10FF38003C6F12833A17B7D138ACC52737BD37861F
:10FF48003595BFD63377CC2B325F708930FFE6DB2F
:10FF58002E08E53C1E6042A20D010000000A0000C8
:10FF68000064000000E803000010270000A08601DC
:10FF78000040420F008096980000E1F50500CA9AFB
:10FF88003B4F543A25342E3266432025733A2530A8
:10FF9800642525200053503A25342E32664320002C
:10FFA80052543A25342E32664320004F543A2534B1
:10FFB8002E32664300523A25342E326600286E757A
:10FFC8006C6C290048533D2564004D443A25730064
:10FFD8002020202000436F6F6C004175746F00482B
:10FFE8006561740048204300484300434C0048546E
:08FFF8000048004E0059000012
:020000040020DA
:08000000FFFFFFFFFFFFFFFF00
:020000040030CA
:0E000000FF011F1FFF8385FF0FC00FE00F40A1
:00000001FF
