:0400000007EF00F016
:100008006B82B0ED13F09FEF17F0840E0001946F30
:10001800000E956F00EF06F0250EAC19D8B40AD083
:1000280080C0D9FF81C0DAFFACC0DFFF804B812BD5
:1000380000EF06F0000EA96F000EA86F000EA36F68
:10004800000EA26F04D00001A285824B832B82C0D0
:10005800F6FF83C0F7FFF86A0800F550300AD8B4F5
:10006800F2D782C0F6FF83C0F7FFF86A0800F550A0
:1000780071EC18F0D8A036D0000E0001A96F000E60
:10008800A86FA8C015F0A9C016F0000E186E0A0EC9
:10009800176E16EC18F015C0A8F016C0A9F0D00E0F
:1000A80000018A6FFF0E8B6F82C0F6FF83C0F7FFD7
:1000B800F86A0800F5508C6F8D6B8A518C278B512C
:1000C8008D238C51A8278D51A923824B832B82C065
:1000D800F6FF83C0F7FFF86A0800F55071EC18F0D6
:1000E800D8B0CFD782C0F6FF83C0F7FFF86A080000
:1000F800F5502E0AD8A432D00001A38D824B832B51
:10010800000EAB6F000EAA6F1DD0AAC015F0ABC0D1
:1001180016F0000E186E0A0E176E16EC18F082C054
:10012800F6FF83C0F7FFF86A0800F5501526000EA1
:100138001622D00E15240001AA6FFF0E1620AB6FF1
:10014800824B832B82C0F6FF83C0F7FFF86A080052
:10015800F55071EC18F0D8A095D0D7D7000E000153
:10016800AB6F000EAA6FA3898DD0A385A9D094C0C8
:10017800D9FF95C0DAFFDECF92F0DDCF93F0020E03
:100188009427000E952392519311D8A404D0EA0E17
:10019800926FFF0E936F000E976F000E966F03D04D
:1001A8000001964B972B965192258A6F9751932170
:1001B8008B6F8AC0F6FF8BC0F7FF000EF86E0F0E2C
:1001C800F76403D00800F55005D0F6CFE1FFF7CF6C
:1001D800E2FFE7500009D8A4E3D70001AA51AB1108
:1001E800D8B40AD09651AA5D9751AB59D8B004D06B
:1001F800AAC096F0ABC097F0A851965DA95197593F
:10020800D8B005D09651A85F9751A95B0DD0000EC4
:10021800A96F000EA86F08D080C0D9FF81C0DAFF8F
:10022800200EDF6E804B812BA807D8A0A907A8292C
:10023800F3E1A929D8B41CD0EFD792C0F6FF93C038
:10024800F7FF000EF86E80C0D9FF81C0DAFF0F0EED
:10025800F76403D00800F55005D0F6CFE1FFF7CFDB
:10026800E2FFE750DF6E0001924B932B804B812B0E
:100278009607D8A097079629E0E19729D8B400EF08
:1002880006F0DBD782C0F6FF83C0F7FF0001824B80
:10029800832BF86A0800F5CFACF0AC51000AD8B44B
:1002A8000EEF06F0640AD8B40BD0020AD8B45DD7B2
:1002B8000F0AD8B405D01A0AD8B459D700EF06F0F7
:1002C800070EA315D8B45DD3A3A904D0000EAB6F55
:1002D800060EAA6F94C0D9FF95C0DAFFDECFA4F04E
:1002E800DECFA5F0DECFA6F0DECFA7F0040E942770
:1002F800000E9523A7AF15D0A4C015F0A5C016F021
:10030800A6C017F0A7C018F0D3EC17F015C0A4F0DA
:1003180016C0A5F017C0A6F018C0A7F0030E00017C
:10032800A213000EA16F000EA06FA451A511A61173
:10033800A711D8B482D0A635A735820FA06FA16BBC
:10034800FF0EA123A007D8A0A107A0C015F0A1C047
:1003580016F0000E186E030E176E16EC18F015C086
:10036800A0F016C0A1F0A0C01BF0A1C01CF0000EA8
:100378001E6E0A0E1D6EEBEC14F01BC0A0F01CC024
:10038800A1F00001A1AF03D0A007D8A0A107A051F8
:1003980000087FEC08F03CC098F03DC099F03EC0E2
:1003A8009AF03FC09BF098C023F099C024F09AC0FF
:1003B80025F09BC026F0A4C027F0A5C028F0A6C051
:1003C80029F0A7C02AF0BFEC0AF023C098F024C097
:1003D80099F025C09AF026C09BF098C015F099C0F6
:1003E80016F09AC017F09BC018F0000E196E000E98
:1003F8001A6E800E1B6E3F0E1C6E20EC13F0D8B0E8
:1004080005D00001A007D8A0A10717D098C015F003
:1004180099C016F09AC017F09BC018F0000E196E1C
:10042800000E1A6E200E1B6E410E1C6E20EC13F08F
:10043800D8A003D00001A04BA12B0001ABBF06D070
:10044800AB5121E10D0EAA5DD8B01DD0A4C049F072
:10045800A5C04AF0A6C04BF0A7C04CF0AA515FEC6B
:100468000FF03CC04DF03DC04EF03EC04FF03FC0D5
:1004780050F067EC0CF049C0A4F04AC0A5F04BC09E
:10048800A6F04CC0A7F00001A1BF06D0A15123E1FE
:100498000A0EA05DD8B01FD0A451A511A611A711AE
:1004A800D8B464D0A4C045F0A5C046F0A6C047F0B3
:1004B800A7C048F023EC14F04550461047104810E8
:1004C800D8A454D00001A1BF51D0A15104E1020E1B
:1004D800A05DD8A04BD098C015F099C016F09AC06E
:1004E80017F09BC018F05F0E196E700E1A6E890E09
:1004F8001B6E400E1C6E20EC13F0D8B003D0000128
:10050800F70E02D00001F80EA027FF0EA123A0517C
:100518007FEC08F03CC098F03DC099F03EC09AF0DE
:100528003FC09BF0A4C015F0A5C016F0A6C017F0F8
:10053800A7C018F098C019F099C01AF09AC01BF01B
:100548009BC01CF08CEC12F015C09CF016C09DF0FE
:1005580017C09EF018C09FF0000E0001A46F000E97
:10056800A56F000EA66F000EA76F3CD0A4C045F083
:10057800A5C046F0A6C047F0A7C048F023EC14F089
:1005880045C09CF046C09DF047C09EF048C09FF013
:10059800A4C05DF0A5C05EF0A6C05FF0A7C060F083
:1005A8009CC01BF09DC01CF09EC01DF09FC01EF09B
:1005B800000EB6EC10F01BC061F01CC062F01DC04C
:1005C80063F01EC064F03EEC17F05DC0A4F05EC09E
:1005D800A5F05FC0A6F060C0A7F0000E0001A16FF3
:1005E800000EA06F010EAC6F0A0EAC19D8B41BD068
:1005F800AC51040D410EF324F66EFE0EF420F76E96
:10060800F86A000EF8220900F5509C5D0900F550C3
:100618009D590900F5509E590900F5509F59D8A0D9
:1006280002D0AC2BE1D7ACC08AF08B6B8ABF8B07AA
:10063800AA518A27AB518B23A0518A27A1518B231A
:100648008A51A85F8B51A95BAA51AB11D8B403D0CA
:10065800A807D8A0A907030EA2158A6F000EA31534
:100668008B6F8A518B11D8B403D0A807D8A0A907DB
:10067800A2A531D0030EA2158A6F000EA3158B6FA9
:100688008A518B11D8B414D080C0D9FF81C0DAFF49
:100698002D0EDF6E804B812B0BD080C0D9FF81C01F
:1006A800DAFF300EDF6E804B812BA807D8A0A90790
:1006B800A9BF75D0A951F1E1A805D8A070D0EDD790
:1006C80080C0D9FF81C0DAFF200EDF6E804B812BFE
:1006D800A807D8A0A907A9BF05D0A951F1E1A80585
:1006E800D8B0EED7030EA2158A6F000EA3158B6F34
:1006F8008A518B11D8B453D080C0D9FF81C0DAFF9A
:100708002D0E4AD09CC015F09DC016F09EC017F063
:100718009FC018F0AC51040D410EF324F66EFE0E86
:10072800F420F76EF86A000EF8220900F5CF19F0E8
:100738000900F5CF1AF00900F5CF1BF00A00F5CF34
:100748001CF02DEC15F015C098F016C099F017C0E4
:100758009AF018C09BF098C022F099C023F09AC074
:1007680024F09BC025F00A0E266E000E276E000EA0
:10077800286E000E296E62EC16F022C098F023C095
:1007880099F024C09AF025C09BF000019851300FD1
:1007980080C0D9FF81C0DAFFDF6E804B812BAC07A8
:1007A800AC29D8B40CD0AED780C0D9FF81C0DAFF4D
:1007B800300EDF6E804B812BA007D8A0A107A1BF08
:1007C80005D0A151F1E1A005D8B0EED7ABBF09D053
:1007D800AB5104E1090EAA5DD8A003D0080EAC6F96
:1007E80002D0AAC0ACF0AC51AA5F000EACBFFF0E9D
:1007F800AB5BAC51D8B408D080C0D9FF81C0DAFF58
:100808002E0EDF6E804B812BAC517FEC08F03CC084
:100818008EF03DC08FF03EC090F03FC091F0A4C074
:1008280027F0A5C028F0A6C029F0A7C02AF08EC0DE
:1008380023F08FC024F090C025F091C026F0BFECC3
:100848000AF023C045F024C046F025C047F026C072
:1008580048F023EC14F045C09CF046C09DF047C01A
:100868009EF048C09FF077D09CC015F09DC016F050
:100878009EC017F09FC018F00001AC51040D410E46
:10088800F324F66EFE0EF420F76EF86A000EF822D6
:100898000900F5CF19F00900F5CF1AF00900F5CFD6
:1008A8001BF00A00F5CF1CF02DEC15F015C098F0E0
:1008B80016C099F017C09AF018C09BF098C022F0A3
:1008C80099C023F09AC024F09BC025F00A0E266E2A
:1008D800000E276E000E286E000E296E62EC16F0D0
:1008E80022C098F023C099F024C09AF025C09BF04C
:1008F80000019851300F80C0D9FF81C0DAFFDF6E48
:10090800804B812B9CC022F09DC023F09EC024F018
:100918009FC025F0AC51040D410EF324F66EFE0E77
:10092800F420F76EF86A000EF8220900F5CF26F0D9
:100938000900F5CF27F00900F5CF28F00A00F5CF18
:1009480029F062EC16F022C09CF023C09DF024C070
:100958009EF025C09FF00001AC07AC29D8B40CD09C
:1009680083D780C0D9FF81C0DAFF300EDF6E804B9D
:10097800812BAA07D8A0AB07AA51AB11D8B43CD198
:10098800F0D794C0D9FF95C0DAFFDECF9CF0DDCF59
:100998009DF0000E9DBFFF0E9E6F9F6F020E942765
:1009A800000E95239FAF0AD0030EA2139F1F9E1F10
:1009B8009D1F9C6D000E9D239E239F23AA51AB1162
:1009C800D8A408D09C519D119E119F11D8A402D083
:1009D800AA4BAB2B010EAC6F0A0EAC19D8B41BD0C6
:1009E800AC51040D410EF324F66EFE0EF420F76EA2
:1009F800F86A000EF8220900F5509C5D0900F550D0
:100A08009D590900F5509E590900F5509F59D8A0E5
:100A180002D0AC2BE1D7800EACBF7F0E8A6FAA51F3
:100A2800AC5DAB51800A8A59D8B003D0AAC0ACF0EB
:100A380010D0AB51800A8A6FAC51AA5D800EACBF52
:100A48007F0E8A59D8B005D0AC51AA6FAB6BAABF3C
:100A5800AB07A851A911D8B40DD0030EA2158A6FFF
:100A6800000EA3158B6F8A518B11D8B403D0A80739
:100A7800D8A0A907A3AD13D0A851AA5DAB51800A8D
:100A88008A6FA951800A8A59D8B005D0AA51A85F9F
:100A9800AB51A95B04D0000EA96F000EA86F800EA1
:100AA800ACBF7F0E8A6FA851AC5DA951800A8A59E4
:100AB800D8B007D0AC51A85F000EACBFFF0EA95B41
:100AC80004D0000EA96F000EA86FA2A522D0030EB5
:100AD800A2158A6F000EA3158B6F8A518B11D8B49B
:100AE80008D080C0D9FF81C0DAFF2D0EDF6E804BA1
:100AF800812BA851A911D8B477D080C0D9FF81C063
:100B0800DAFF300EDF6E804B812BA807D8A0A9072B
:100B1800F0D7A851A911D8B40FD080C0D9FF81C08F
:100B2800DAFF200EDF6E804B812BA807D8A0A9071B
:100B3800A851A911D8A4F1D7030EA2158A6F000EE7
:100B4800A3158B6F8A518B11D8B44ED080C0D9FFB2
:100B580081C0DAFF2D0EDF6E45D0AAC08AF0ABC087
:100B68008BF0D8908A378B37D8908A378B37410EDD
:100B78008A25F66EFE0E8B21F76EF86A000EF822B3
:100B88000900F5CF19F00900F5CF1AF00900F5CFE3
:100B98001BF00A00F5CF1CF09CC015F09DC016F0A4
:100BA8009EC017F09FC018F02DEC15F015C022F06C
:100BB80016C023F017C024F018C025F00A0E266EC0
:100BC800000E276E000E286E000E296E62EC16F0DD
:100BD8002250300F0001AC6F80C0D9FF81C0DAFF0E
:100BE800ACC0DFFF804B812BAA07D8A0AB07AA298E
:100BF800B4E1AB29D8A4B1D782C0F6FF83C0F7FF10
:100C0800824B832BF86A0800F5CFACF0AC51D8A41E
:100C180010EF00F080C0D9FF81C0DAFF000EDF6E50
:100C2800120091EC14F0000E0001ED6F000EEC6F55
:100C3800000EEB6F000EE46F010EE36F000EE66F1F
:100C4800010EE56F95EC16F094EC18F00C0EC6EC5E
:100C580016F0AE0E0001806F000E816FAA0E826F33
:100C6800FE0E836F09EC00F0AE0E166E000E176EC6
:100C78003CEC18F0AE0E0001806F000E816F100E74
:100C8800826FFF0E836F09EC00F0AE0E166E000E39
:100C9800176E3CEC18F0AE0E0001806F000E816FED
:100CA8005D0E826FFF0E836F09EC00F0AE0E166EBC
:100CB800000E176E3CEC18F0AE0E0001806F000EAF
:100CC800816F690E826FFE0E836F09EC00F0AE0E25
:100CD800166E000E176E3CEC18F0040081B403D0B9
:100CE800EDEC15F003D081A6AFEC15F081A805D086
:100CF800000E0001E46F010EE36F81AA05D0000E1B
:100D08000001E66F010EE56F81B818D00001E351CC
:100D1800E411D8B413D082B403D0AD6BAD2B02D09C
:100D28000001AD6BAD47AD478250AD19FB0BAD1956
:100D3800826E000EE46F000EE36F19D081BA17D0EF
:100D48000001E551E611D8B412D082BA03D0AD6BD8
:100D5800AD2B02D00001AD6BAD3BAD478250AD1954
:100D6800DF0BAD19826E000EE66F000EE56F020E06
:100D78006EEC15F042C0DFF043C0E0F044C0E1F093
:100D880045C0E2F0DFC023F0E0C024F0E1C025F068
:100D9800E2C026F0000E276E000E286EC80E296EDF
:100DA800420E2A6EBFEC0AF023C0E7F024C0E8F038
:100DB80025C0E9F026C0EAF0010E1F6E010E61ECB5
:100DC80017F0AE0E0001806F000E816FB00E826FBB
:100DD800FF0E836FF0C084F0F1C085F0F2C086F09A
:100DE800F3C087F0F4C088F0F5C089F009EC00F092
:100DF800AE0E236E000E246E4EEC18F0010E1F6E20
:100E08000A0E61EC17F0AE0E0001806F000E816FC4
:100E1800BF0E826FFF0E836FE7C084F0E8C085F0D5
:100E2800E9C086F0EAC087F009EC00F0AE0E236E48
:100E3800000E246E4EEC18F0020E1F6E010E61ECCF
:100E480017F082B405D0F70E0001D76FFF0E04D05B
:100E5800FB0E0001D76FFF0ED86FAE0E806F000E2D
:100E6800816FC80E826FFF0E836FD7C084F0D8C021
:100E780085F009EC00F0AE0E236E000E246E4EECE9
:100E880018F0020E1F6E090E61EC17F082BA05D039
:100E9800F70E0001D96FFF0E04D0FB0E0001D96FC9
:100EA800FF0EDA6FAE0E806F000E816FD10E826F6B
:100EB800FF0E836FD9C084F0DAC085F009EC00F02A
:100EC800AE0E236E000E246E4EEC18F0030E1F6E4D
:100ED800010E61EC17F00001F651F711D8A40BD000
:100EE800AE0E806F000E816F900E826FFF0E836FC3
:100EF80009EC00F028D00001EE51EF11D8B411D060
:100F0800EE05EF11D8B404D0F10EDD6FFF0E03D05B
:100F1800E20EDD6FFF0EDE6FDDC0DBF0DEC0DCF061
:100F280004D0DA0EDB6FFF0EDC6FAE0E806F000EA2
:100F3800816FA10E826FFF0E836FDBC084F0DCC06F
:100F480085F009EC00F0AE0E236E000E246E4EEC18
:100F580018F0040E1F6E010E61EC17F0AE0E0001C2
:100F6800806F000E816F7E0E826FFF0E836F09EC1B
:100F780000F0AE0E236E000E246E4EEC18F080ECDE
:100F880018F00009D8B4B0D0A4EC18F00001ED6F47
:100F9800CE0E156E000E166EEDC017F0EBC018F0F1
:100FA800ECC019F0F7EC11F0D8A00CD0CE0E00016F
:100FB800EB25D96E000EEC21DA6EEDC0DFFFEB4BAE
:100FC800EC2B43D0000E0001EC6F000EEB6F520EBD
:100FD800ED19D8A41DD0AE0E806F000E816FE20E01
:100FE800826FFE0E836FF0C084F0F1C085F0F2C00E
:100FF80086F0F3C087F0F4C088F0F5C089F009ECFA
:1010080000F0AE0E166E000E176E3CEC18F01DD0F8
:10101800540E0001ED19D8A418D0AE0E806F000E42
:10102800816F380E826FFF0E836FE7C084F0E8C0CF
:1010380085F0E9C086F0EAC087F009EC00F0AE0E52
:10104800166E000E176E3CEC18F0090E0001EB1935
:10105800EC11D8A449D0000EEC6F000EEB6FD00E47
:10106800CF25156E166AFF0E1622000E186E0A0E90
:10107800176E16EC18F00001D0511526000E162236
:10108800D00E1524F06FFF0E1620F16FD00ED2256A
:10109800156E166AFF0E1622000E186E0A0E176ECF
:1010A80016EC18F00001D3511526000E1622D00EAA
:1010B8001524F26FFF0E1620F36FD00ED525156E8E
:1010C800166AFF0E1622000E186E0A0E176E16EC20
:1010D80018F00001D6511526000E1622D00E152440
:1010E800F46FFF0E1620F56F000E166EC80E156E03
:1010F80029EC18F0F2D5446E44AE1FD1446C44502C
:10110800800A120FD8A0A1D0000E1E6E0A0E1D6E06
:10111800000E186E640E176E4450156E166A15BED2
:1011280016062AEC16F015C01BF016C01CF0EBECE6
:1011380014F0D8901B361C36D8901B361C36240E5B
:101148001B26000E1C220D0E1B24F66EFE0E1C2004
:10115800F76EF86A000EF8220900F5CF27F00900AB
:10116800F5CF28F00900F5CF29F00A00F5CF2AF0CD
:10117800000E1E6E640E1D6E44501B6E1C6A1BBE54
:101188001C06EBEC14F0D8901B361C36D8901B3696
:101198001C36480E1B26000E1C220D0E1B24F66E54
:1011A800FE0E1C20F76EF86A000EF8220900F5CF33
:1011B80023F00900F5CF24F00900F5CF25F00A0047
:1011C800F5CF26F0BFEC0AF023C040F024C041F070
:1011D80025C042F026C043F040C023F041C024F0AF
:1011E80042C025F043C026F0000E186E0A0E176E96
:1011F8004450156E166A15BE16062AEC16F0D890DD
:1012080015361636D890153616360D0E1524F66E88
:10121800FE0E1620F76EF86A000EF8220900F5CFC8
:1012280027F00900F5CF28F00900F5CF29F00A00CA
:10123800F5CF2AF0BFEC0AF023C03CF024C03DF003
:1012480025C03EF026C03FF012004450800A750FBA
:10125800D8A05BD0000E1E6E0A0E1D6E44501B6E89
:101268001C6A1BBE1C06EBEC14F0D8901B361C360F
:10127800D8901B361C36240E1B26000E1C220D0E81
:101288001B24F66EFE0E1C20F76EF86A000EF8227C
:101298000900F5CF23F00900F5CF24F00900F5CFB8
:1012A80025F00A00F5CF26F0000E186E0A0E176E0C
:1012B8004450156E166A15BE16062AEC16F0D8901C
:1012C80015361636D890153616360D0E1524F66EC8
:1012D800FE0E1620F76EF86A000EF8220900F5CF08
:1012E80027F00900F5CF28F00900F5CF29F00A000A
:1012F800F5CF2AF0BFEC0AF023C03CF024C03DF043
:1013080025C03EF026C03FF012004450040D0D0EDB
:10131800F324F66EFE0EF420F76EF86A000EF8223B
:101328000900F5CF3CF00900F5CF3DF00900F5CFF5
:101338003EF00A00F5CF3FF012004450800A120F29
:10134800D8A0A1D0000E1E6E0A0E1D6E000E186EDB
:10135800640E176E4450156E166A15BE16062AECF2
:1013680016F015C01BF016C01CF0EBEC14F0D8906A
:101378001B361C36D8901B361C36240E1B26000E36
:101388001C22D90E1B24F66EFD0E1C20F76EF86A7F
:10139800000EF8220900F5CF27F00900F5CF28F054
:1013A8000900F5CF29F00A00F5CF2AF0000E1E6ECD
:1013B800640E1D6E44501B6E1C6A1BBE1C06EBECB3
:1013C80014F0D8901B361C36D8901B361C36480EA5
:1013D8001B26000E1C22D90E1B24F66EFD0E1C20A7
:1013E800F76EF86A000EF8220900F5CF23F009001D
:1013F800F5CF24F00900F5CF25F00A00F5CF26F047
:10140800BFEC0AF023C040F024C041F025C042F0F0
:1014180026C043F040C023F041C024F042C025F06C
:1014280043C026F0000E186E0A0E176E4450156E53
:10143800166A15BE16062AEC16F0D890153616361A
:10144800D89015361636D90E1524F66EFD0E1620D0
:10145800F76EF86A000EF8220900F5CF27F00900A8
:10146800F5CF28F00900F5CF29F00A00F5CF2AF0CA
:10147800BFEC0AF023C03CF024C03DF025C03EF08C
:1014880026C03FF012004450800A750FD8A05BD0E8
:10149800000E1E6E0A0E1D6E44501B6E1C6A1BBE8B
:1014A8001C06EBEC14F0D8901B361C36D8901B3673
:1014B8001C36240E1B26000E1C22D90E1B24F66E89
:1014C800FD0E1C20F76EF86A000EF8220900F5CF11
:1014D80023F00900F5CF24F00900F5CF25F00A0024
:1014E800F5CF26F0000E186E0A0E176E4450156ED2
:1014F800166A15BE16062AEC16F0D890153616365A
:10150800D89015361636D90E1524F66EFD0E16200F
:10151800F76EF86A000EF8220900F5CF27F00900E7
:10152800F5CF28F00900F5CF29F00A00F5CF2AF009
:10153800BFEC0AF023C03CF024C03DF025C03EF0CB
:1015480026C03FF012004450040DD90EF324F66E65
:10155800FD0EF420F76EF86A000EF8220900F5CFA8
:101568003CF00900F5CF3DF00900F5CF3EF00A0048
:10157800F5CF3FF012002650800B2F6E2650262400
:10158800356E25BE35803550D8B40DD03528D8A451
:1015980008D0000E236E000E246E000E256E000E7D
:1015A800266E258E08D0000E236E000E246E000EC7
:1015B800256E000E266E2A50800B2F1A2A502A24D8
:1015C800346E29BE34803450D8B40DD03428D8A411
:1015D80008D0000E276E000E286E000E296E000E31
:1015E8002A6E298E08D0000E276E000E286E000E77
:1015F800296E000E2A6E3450D8B403D03550D8A4C2
:1016080009D0000E236E000E246E000E256E000E0B
:10161800266E120029502302F3CF3AF0F4CF3BF0A4
:101628003A50306E316A326A336A3B50366E376AE6
:10163800386A396A28502402F3CF3AF0F4CF3BF0E5
:101648003A503026000E3122322233223B503626C1
:10165800000E37223822392227502502F3CF3AF0DC
:10166800F4CF3BF03A503026000E3122322233229A
:101678003B503626000E37223822392232C033F04A
:1016880031C032F030C031F0306A27502402F3CF35
:101698003AF0F4CF3BF03A5030263B503122000E5E
:1016A8003222000E332228502302F3CF3AF0F4CF2F
:1016B8003BF03A5030263B503122000E3222000EC9
:1016C800332232C033F031C032F030C031F0306AEA
:1016D80027502302F3CF3AF0F4CF3BF03A503026AC
:1016E8003B503122000E3222000E332229502402B0
:1016F800F3CF3AF0F4CF3BF03A5036263B5037223E
:10170800000E3822000E392228502502F3CF3AF075
:10171800F4CF3BF03A5036263B503722000E3822A1
:10172800000E392229502502F3CF3AF0F4CF3BF0CE
:101738003A502B6E3B502C6E2D6A2E6A2DC02EF01F
:101748002CC02DF02BC02CF02B6A2B5036262C5099
:1017580037222D5038222E50392230C02BF031C07C
:101768002CF032C02DF033C02EF0190E05D0D890D1
:101778002E322D322C322B32E82EF9D72B5036262A
:101788002C5037222D5038222E50392232C033F0B7
:1017980031C032F030C031F0306A345035C02BF0EF
:1017A8002C6A2B26000E2C22820E2B243A6EFF0E5A
:1017B8002C203B6E0FD0D89036363736383639362F
:1017C80033BE3680D89030363136323633363A0624
:1017D800D8A03B0638AEEFD7000E346E33AE16D025
:1017E800FF0E30142B6EFF0E31142C6EFF0E3214C8
:1017F8002D6E7F0E33142E6E2B502C102D102E10A4
:10180800D8A402D036A002D0010E346E3450D8B419
:101818001FD0010E3626000E37223822392239A071
:1018280017D036C02BF037C02CF038C02DF039C097
:101838002EF02E342E322D322C322B322BC036F095
:101848002CC037F02DC038F02EC039F03A4A3B2A68
:101858003BBE0DD03B5003E13A28D8A008D0000E7B
:10186800366E000E376E800E386E7F0E20D03BBE6F
:1018780005D03B500EE13A04D8B00BD0000E366EBE
:10188800000E376E000E386E000E396E000E2F6E89
:101898000FD03AC035F0FF0E3616FF0E37167F0E02
:1018A8003816000E391635B0388ED8903530396E66
:1018B8002F50391236C023F037C024F038C025F035
:1018C80039C026F012004C50800B596E4C504C24F5
:1018D8005B6E4BBE5B805B50D8B40DD05B28D8A440
:1018E80008D0000E496E000E4A6E000E4B6E000EB8
:1018F8004C6E4B8E06D0000E496E000E4A6E000EDE
:101908004B6E000E4C6E5050800B5A6E59505A1840
:10191800D8A4598C505050245A6E4FBE5A805A50F1
:10192800D8B40DD05A28D8A408D0000E4D6E000E99
:101938004E6E000E4F6E000E506E4F8E06D0000E8B
:101948004D6E000E4E6E000E4F6E000E506E5B50C8
:101958005A5CD8B022D059AC02D0800E591A5BC05C
:101968005CF05AC05BF05CC05AF049C05CF04DC0F6
:1019780049F05CC04DF04AC05CF04EC04AF05CC013
:101988004EF04BC05CF04FC04BF05CC04FF04CC009
:101998005CF050C04CF05CC050F0000E5C6E5B50C8
:1019A800516E526A511E521E514A522A5A50536E53
:1019B800546A515053265250542254BE2CD054507D
:1019C80004E11A0E535CD8A026D049504A104B1097
:1019D8004C10D8B402D0010E01D0000E5C6E000E7F
:1019E800496E000E4A6E000E4B6E000E4C6E5AC0C9
:1019F8005BF015D05CA005D0D8905C3001095C6E16
:101A080002D0D8905C3249B05C8E4C344C324B32A8
:101A18004A3249325B2A5A505B5CD8A0EBD759BC92
:101A280029D05B50D8A409D0000E496E000E4A6E2A
:101A3800000E4B6E000E4C6E12004D5049264E5053
:101A48004A224F504B2250504C224CA083D05CA0CD
:101A580006D0D8905C325C5001095C6E02D0D890F8
:101A68005C3249B05C8E4C344C324B324A3249328B
:101A78005B2A70D04D50495C4E504A584F504B58D5
:101A88004C50800A516E5050800A5158D8B036D008
:101A980049C051F04AC052F04BC053F04CC054F00A
:101AA800511E521E531E541E512A000E52225322FA
:101AB80054224D505124556E4E505220566E4F5060
:101AC8005320576E50505420586EFF0E5524496EBF
:101AD800FF0E56204A6EFF0E57204B6EFF0E582001
:101AE8004C6E800E591A5C6C5C50D8A40FD0010E55
:101AF8004926000E4A224B224C2208D04D50495EFE
:101B08004E504A5A4F504B5A50504C5A49504A100E
:101B18004B104C10D8A41CD05C50D8A419D0000E7F
:101B2800496E000E4A6E000E4B6E000E4C6E12008F
:101B3800D89049364A364B364C365CBE49805CA054
:101B480002D0D88001D0D8905C365B50D8A45B0610
:101B58004BAEEED7000E5A6E5CAE0AD05CC051F0A8
:101B68007F0E5116D8A402D049A002D0010E5A6E99
:101B78005A50D8B420D0010E4926000E4A224B22D2
:101B88004C224CA018D049C051F04AC052F04BC06A
:101B980053F04CC054F05434543253325232513210
:101BA80051C049F052C04AF053C04BF054C04CF0F9
:101BB8005B28D8A45B2A5B28D8B403D05B50D8A490
:101BC8000DD0000E496E000E4A6E000E4B6E000ED0
:101BD8004C6E5B50D8A402D0000E596E5BA002D0A8
:101BE8004B8E01D04B9ED8905B304C6E59BE4C8EBC
:101BF80049C049F04AC04AF04BC04BF04CC04CF0C9
:101C080012002C50800B356E2C502C24406E2BBEAD
:101C180040804050D8B40DD04028D8A408D0000E39
:101C2800296E000E2A6E000E2B6E000E2C6E2B8E67
:101C380006D0000E296E000E2A6E000E2B6E000EC6
:101C48002C6E3050800B351A30503024416E2FBE28
:101C580041804150D8B40DD04128D8A408D0000EF6
:101C68002D6E000E2E6E000E2F6E000E306E2F8E13
:101C780006D0000E2D6E000E2E6E000E2F6E000E7A
:101C8800306E2D502E102F103010D8A415D0000E05
:101C9800296E000E2A6E000E2B6E000E2C6E800E22
:101CA8002B127F0E2C1229C029F02AC02AF02BC033
:101CB8002BF02CC02CF012004050D8A411D0000EEC
:101CC800296E000E2A6E000E2B6E000E2C6E29C097
:101CD80029F02AC02AF02BC02BF02CC02CF01200BF
:101CE8004150316E326A311E321E314A322A40501A
:101CF800336E346A31503326325034227F0E332407
:101D08003A6E000E34203B6E29C036F02AC037F0F8
:101D18002BC038F02CC039F0000E296E000E2A6E48
:101D2800000E2B6E000E2C6E000E3C6E000E3D6EEB
:101D3800000E3E6E000E3F6E000E416E28D04150E0
:101D4800D8B411D0D8903636373638363936D89098
:101D580029362A362B362C363FBE2980D8903C3679
:101D68003D363E363F362D50365C2E5037582F5074
:101D7800385830503958D8A009D03F8C2D50365E8D
:101D88002E50375A2F50385A3050395A412A190E86
:101D98004164D5D73650371038103910D8B411D01F
:101DA8003C800FD0D89029362A362B362C363FBEA9
:101DB8002980D8903C363D363E363F363A06D8A084
:101DC8003B062BAEEFD7000E416E3FAE16D0FF0E8E
:101DD8003C14316EFF0E3D14326EFF0E3E14336E0E
:101DE8007F0E3F14346E3150321033103410D8A4A3
:101DF80002D029A002D0010E416E4150D8B41FD0A4
:101E0800010E2926000E2A222B222C222CA017D0C4
:101E180029C031F02AC032F02BC033F02CC034F086
:101E28003434343233323232313231C029F032C0B4
:101E38002AF033C02BF034C02CF03A4A3B2A3BBE80
:101E480010D03B5003E13A28D8A00BD0000E3B6ECF
:101E58003A68000E296E000E2A6E000E2B6E000ED8
:101E68002C6E3BBE05D03B5011E13A04D8B00ED0E1
:101E7800000E3B6E000E3A6E000E296E000E2A6EA2
:101E8800000E2B6E000E2C6E000E356E3AC040F020
:101E980040A002D02B8E01D02B9ED89040302C6EC3
:101EA80035502C1229C029F02AC02AF02BC02BF05B
:101EB8002CC02CF01200486E6D0E4864B5D0000E90
:101EC8001E6E0A0E1D6E000E186E640E176E48C048
:101ED80015F0166A2AEC16F015C01BF016C01CF097
:101EE800EBEC14F0D8901B361C36D8901B361C36F9
:101EF800240E1B26000E1C220D0E1B24F66EFE0E51
:101F08001C20F76EF86A000EF8220900F5CF27F0BA
:101F18000900F5CF28F00900F5CF29F00A00F5CF20
:101F28002AF0000E1E6E640E1D6E48C01BF01C6A5F
:101F3800EBEC14F0D8901B361C36D8901B361C36A8
:101F4800480E1B26000E1C220D0E1B24F66EFE0EDC
:101F58001C20F76EF86A000EF8220900F5CF23F06E
:101F68000900F5CF24F00900F5CF25F00A00F5CFD8
:101F780026F0BFEC0AF023C044F024C045F025C089
:101F880046F026C047F0000E186E0A0E176E48C0BD
:101F980015F0166A2AEC16F0D89015361636D89031
:101FA800153616360D0E1524F66EFE0E1620F76E33
:101FB800F86A000EF8220900F5CF27F00900F5CFDE
:101FC80028F00900F5CF29F00A00F5CF2AF044C01F
:101FD80023F045C024F046C025F047C026F0BFECEA
:101FE8000AF023C040F024C041F025C042F026C0CA
:101FF80043F040C023F041C024F042C025F043C064
:1020080026F0000E276E000E286E000E296E3F0E79
:102018002A6EBFEC0AF023C03CF024C03DF025C076
:102028003EF026C03FF012000A0E486471D0000E40
:10203800186E0A0E176E48C015F0166A2AEC16F0CC
:10204800D89015361636D890153616360D0E152436
:10205800F66EFE0E1620F76EF86A000EF8220900DA
:10206800F5CF27F00900F5CF28F00900F5CF29F0C2
:102078000A00F5CF2AF0000E1E6E0A0E1D6E48C02B
:102088001BF01C6AEBEC14F0D8901B361C36D89069
:102098001B361C36240E1B26000E1C220D0E1B247C
:1020A800F66EFE0E1C20F76EF86A000EF822090084
:1020B800F5CF23F00900F5CF24F00900F5CF25F07E
:1020C8000A00F5CF26F0BFEC0AF023C044F024C084
:1020D80045F025C046F026C047F044C023F045C06F
:1020E80024F046C025F047C026F0000E276E000EEB
:1020F800286E000E296E3F0E2A6EBFEC0AF023C030
:102108003CF024C03DF025C03EF026C03FF0120050
:102118004850040D0D0EF324F66EFE0EF420F76EF3
:10212800F86A000EF8220900F5CF23F00900F5CF70
:1021380024F00900F5CF25F00A00F5CF26F0000EAF
:10214800276E000E286E000E296E3F0E2A6EBFEC19
:102158000AF023C03CF024C03DF025C03EF026C064
:102168003FF01200236E2350D8A41EAE1AD01BC015
:102178001FF01CC020F01DC021F01EC022F01F1E41
:10218800201E211E221E1F2A000E2022212222226A
:102198001FC025F020C026F021C027F022C028F05B
:1021A80008D01BC025F01CC026F01DC027F01EC09B
:1021B80028F01B501C101D101E10D8A409D0000EAA
:1021C8001B6E000E1C6E000E1D6E000E1E6E1200A1
:1021D800960E246E06D0242AD8902832273226322A
:1021E8002532000E25141F6E000E2614206E000ED8
:1021F8002714216EFE0E2814226E1F502010211065
:102208002210D8B40DD0E7D7242A010E2526000EB7
:10221800262227222822D890283227322632253211
:10222800000E25141F6E000E2614206E000E2714B3
:10223800216EFF0E2814226E1F502010211022102C
:10224800D8B407D0E1D72406D890253626362736C5
:10225800283627BE03D0020E2460F5D724B008D054
:10226800FF0E2516FF0E26167F0E2716FF0E2816C0
:10227800D890243224C01FF0206A216A226A1FC025
:1022880022F0216A206A1F6A1F5025122050261248
:1022980021502712225028122350D8A41EAE01D054
:1022A800288E25C01BF026C01CF027C01DF028C0B2
:1022B8001EF0120017C01DF01E6A1F6A16341D3664
:1022C80001E31E801D50256E2550D8A409D0000EAC
:1022D800156E000E166E000E176E000E186E1200A8
:1022E8001BC01DF01E6A1F6A1A341D3601E31E80CA
:1022F8001D50246E2450D8A409D0000E156E000E6F
:10230800166E000E176E000E186E1200168EFF0E57
:102318001516FF0E1616000E17161A8EFF0E191632
:10232800FF0E1A16000E1B16000E206E000E216EF0
:10233800000E226E000E236E7F0E255E2450980F2D
:10234800255E180E246ED890203621362236233684
:102358001950155C1A5016581B501758D8A007D09A
:102368001950155E1A50165A1B50175A2080D890CB
:10237800153616361736242EE6D725AE16D0255034
:10238800800A970FD8B009D0000E156E000E166E91
:10239800000E176E000E186E1200D89023322232EB
:1023A80021322032253EF9D715D0170E25640FD0DB
:1023B800000E156E000E166E000E176E000E186ECB
:1023C8001200D8902036213622362336250625508D
:1023D800D8A4F7D720C015F021C016F022C017F0F6
:1023E80023C018F0120018501910D8A410D0010EEC
:1023F8001D6E770E1718D8B406D0570E1718D8B414
:1024080002D0000E1D6E1DC01AF01A3012001804FA
:102418001910D8A40ED0000E1E6E2F0E176405D00A
:10242800330E176002D0010E1E6E1EC01AF01A304D
:102438001200020E18181910D8A426D020EE01F0A8
:102448001550D9261650DA22320EDE18D8B40DD01F
:10245800000E1F6E2F0E176405D03A0E176002D0BB
:10246800010E1F6E1FC01BF00CD0000E206E2F0E29
:10247800176405D0350E176002D0010E206E20C0FB
:102488001BF01C6A1B301200050E18181910D8B45E
:1024980005D0080E18181910D8A40ED0000E216EF9
:1024A8002F0E176405D03A0E176002D0010E216E68
:1024B80021C01AF01A301200030E18181910D8B4D7
:1024C80005D0060E18181910D8A408D03A0E1718F7
:1024D800D8B402D0D8901200D8801200040E181870
:1024E8001910D8B405D0070E18181910D8A40ED092
:1024F800000E226E2F0E176405D0360E176002D01C
:10250800010E226E22C01AF01A301200D890120062
:1025180017341834226E2250D8A409D0000E156E34
:10252800000E166E000E176E000E186E12001B3489
:102538001C34216E2150D8A409D0000E156E000E4F
:10254800166E000E176E000E186E1200178EFF0E14
:102558001516FF0E1616FF0E1716000E18161B8EF0
:10256800FF0E1916FF0E1A16FF0E1B16000E1C166C
:10257800000E1D6E000E1E6E000E1F6E000E206EE9
:102588007F0E225E2150A00F225E200E216ED89071
:102598001D361E361F3620361950155C1A5016582F
:1025A8001B5017581C501858D8A009D01950155E40
:1025B8001A50165A1B50175A1C50185A1D80D8907A
:1025C8001536163617361836212EE1D722AE16D014
:1025D8002250800A9F0FD8B009D0000E156E000E49
:1025E800166E000E176E000E186E1200D89020326C
:1025F8001F321E321D32223EF9D715D01F0E22641B
:102608000FD0000E156E000E166E000E176E000E1F
:10261800186E1200D8901D361E361F362036220638
:102628002250D8A4F7D71DC015F01EC016F01FC041
:1026380017F020C018F01200000E15141D6E000EC1
:1026480016141E6E800E17141F6E7F0E1814206E3F
:102658001D501E101F102010D8A408D0000E156E93
:10266800000E166E000E176E000E186E000E19146E
:102678001D6E000E1A141E6E800E1B141F6E7F0E28
:102688001C14206E1D501E101F102010D8A408D036
:10269800000E196E000E1A6E000E1B6E000E1C6ED8
:1026A80018AE1DD015C01DF016C01EF017C01FF0C3
:1026B80018C020F01D1E1E1E1F1E201E1D2A000EE3
:1026C8001E221F222022000E1D24156E000E1E2021
:1026D800166E000E1F20176E800E2020186E1CAE7E
:1026E8001DD019C01DF01AC01EF01BC01FF01CC061
:1026F80020F01D1E1E1E1F1E201E1D2A000E1E223B
:102708001F222022000E1D24196E000E1E201A6E94
:10271800000E1F201B6E800E20201C6E000E151A46
:10272800000E161A000E171A800E181A000E191A23
:10273800000E1A1A000E1B1A800E1C1A1950155C6E
:102748001A5016581B5017581C501858D8B002D099
:10275800D8901200D88012000600FACF03F0FBCF01
:1027680004F0E9CF05F0EACF06F0E1CF07F0E2CFB9
:1027780008F0D9CF09F0DACF0AF0F3CF0BF0F4CF95
:102788000CF0F6CF0DF0F7CF0EF0F8CF0FF0F5CF35
:1027980010F06BC011F06CC012F06DC013F06EC079
:1027A80014F0F2A412D069046A10D8B409D06950A0
:1027B8006A10D8A408D00001F651F711D8A403D0A4
:1027C800F1EC16F016D0F29414D0F2A203D001EC7A
:1027D80018F00FD0F0A00DD069506A10D8A408D016
:1027E8000001F605F711D8A403D0BAEC17F001D010
:1027F800F09014C06EF013C06DF012C06CF011C0F0
:102808006BF010C0F5FF0FC0F8FF0EC0F7FF0DC04A
:10281800F6FF0CC0F4FF0BC0F3FF0AC0DAFF09C0D3
:10282800D9FF08C0E2FF07C0E1FF06C0EAFF05C004
:10283800E9FF04C0FBFF03C0FAFF6B9211004734A5
:1028480048344E6E4E50D8A409D0000E456E000E86
:10285800466E000E476E000E486E120045C049F0E5
:1028680046C04AF047C04BF048C04CF0200E05D097
:10287800D8904C324B324A324932E82EF9D7495077
:102888004D6E478EFF0E4516FF0E4616FF0E471675
:10289800000E4816960E4E5E4EAE16D04E50800A6A
:1028A800970FD8B009D0000E456E000E466E000E88
:1028B800476E000E486E1200D890483247324632B2
:1028C80045324E3EF9D715D01F0E4E640FD0000E7C
:1028D800456E000E466E000E476E000E486E1200E2
:1028E800D89045364636473648364E064E50D8A418
:1028F800F7D74D50D8B408D0481E471E461E456C21
:10290800000E46224722482245C045F046C046F000
:1029180047C047F048C048F01200000EC26E0C0EC7
:10292800C16E92689368800E946E000E956E000ECC
:10293800966E000E836E000E9D6EAECF15F0B896A3
:10294800000EAC6E190EAF6EAC84AC8A000EAB6E86
:10295800AB88AB8E000ED56ED580D582D594D58E3A
:102968009AEC18F0CD82CD80CD9ACD98000ECF6E1E
:10297800000ECE6EF28EF28CF28A000EF16E000E10
:10298800F06EF18CF18AF08694808294829A000E1F
:102998000001F56F000EF46F000EF36F000EF26F7A
:1029A800000EF16F000EF06F000EF76F010EF66F5C
:1029B800000EEF6F000EEE6F000E6A6E010E696E6C
:1029C800D09EF28AD58EF2889AEC18F01200000E8A
:1029D800206E1EAE06D01D6C1E1ED8B01E2A010E1B
:1029E800206E1CAE06D01B6C1C1ED8B01C2A010E13
:1029F800201A000E226E000E216E1D501E10D8B433
:102A08001CD0010E1F6E04D0D8901D361E361F2A0A
:102A18001EAEFAD7D890213622361D501B5C1E50A8
:102A28001C58D8A005D01D501B5E1E501C5A218072
:102A3800D8901E321D321F2EEDD72050D8B404D0A6
:102A4800216C221ED8B0222A21C01BF022C01CF003
:102A58001200000E1D6E000E1E6E000E1F6E000E80
:102A6800206E19501A101B101C10D8B42AD0010E51
:102A7800216E06D0D89019361A361B361C36212AF4
:102A88001CAEF8D7D8901D361E361F362036195082
:102A9800155C1A5016581B5017581C501858D8A0B7
:102AA80009D01950155E1A50165A1B50175A1C5047
:102AB800185A1D80D8901C321B321A321932212E16
:102AC800E1D71DC015F01EC016F01FC017F020C0BA
:102AD80018F012004C6E4C5082EC17F015C04AF0FA
:102AE80016C04BF04AC015F04BC016F0000E186E19
:102AF800050E176E16EC18F015C01BF016C01CF06A
:102B0800000E1CBEFF0E1D6E1E6E010EB6EC10F000
:102B18001BC029F01CC02AF01DC02BF01EC02CF0D1
:102B2800000E2D6EC00E2E6E7F0E2F6E440E306E70
:102B380005EC0EF029C046F02AC047F02BC048F03B
:102B48002CC049F046C042F047C043F048C044F0AA
:102B580049C045F0120069506A10D8A4120000015B
:102B6800F605F711D8A41200EE51EF11D8A40DD034
:102B7800F407D8A0F507F42908E1F529D8A405D069
:102B8800000EF56F3B0EF46F1200EE05EF11D8A49E
:102B98000DD0F207D8A0F307F22908E1F329D8A449
:102BA80005D0000EF36F3B0EF26F1200020EEE1905
:102BB800EF11D8A41200F007D8A0F107F02908E116
:102BC800F129D8A41200000EF16F170EF06F120051
:102BD800120069506A10D8A412000001F605F71116
:102BE800D8A41200EE51EF11D8A40DD0F44BF52B58
:102BF800F55104E13C0EF45DD8A005D0000EF56F48
:102C0800000EF46F1200EE05EF11D8A40DD0F24BB0
:102C1800F32BF35104E13C0EF25DD8A005D0000E71
:102C2800F36F000EF26F1200020EEE19EF11D8A426
:102C38001200F04BF12BF15104E1180EF05DD8A011
:102C48001200000EF16F000EF06F1200000E1A6EE7
:102C580016AE06D0156C161ED8B0162A010E1A6EBE
:102C680018AE04D0176C181ED8B0182A17501810B0
:102C7800D8B418D0010E196E04D0D890173618366B
:102C8800192A18AEFAD71750155C18501658D8A03C
:102C980004D01750155E1850165AD89018321732AB
:102CA800192EF1D71A50D8B404D0156C161ED8B006
:102CB800162A15C015F016C016F012002650271057
:102CC80028102910D8B424D0010E2A6E06D0D89026
:102CD80026362736283629362A2A29AEF8D7265006
:102CE800225C275023582850245829502558D8A00A
:102CF80008D02650225E2750235A2850245A29509B
:102D0800255AD89029322832273226322A2EE7D758
:102D180022C022F023C023F024C024F025C025F0CF
:102D2800120084948492000E166E190E156E29EC0A
:102D380018F0010E1F6E030E1F6401D00BD0030E96
:102D480060EC18F0000E166E060E156E29EC18F0E1
:102D58001F2AF1D7020E60EC18F0000E1F6E030E4A
:102D68001F6401D012001F50010D650EF324D96EA7
:102D7800000EF420DA6EDF501D6E000E1AEC17F00C
:102D88001F2AEDD7226E1ED0010E1D6E000E1AEC02
:102D980017F0000E166E020E156E29EC18F01200D0
:102DA800020E1F6E010E61EC17F01200100E1D6E60
:102DB800000E1AEC17F0120022C01DF0010E1AECDA
:102DC80017F012002250080AD8B4F0D7020AD8B473
:102DD800E7D7060AD8B4D8D7EFD7F2940001F44B56
:102DE800F52BF55104E13C0EF45DD8A01CD0000E83
:102DF800F56F000EF46FF24BF32BF35104E13C0E28
:102E0800F25DD8A010D0000EF36F000EF26FF04BF9
:102E1800F12BF15104E1180EF05DD8A004D0000E9A
:102E2800F16F000EF06F9FEC18F012001E6E1EB0CE
:102E380002D0849401D08484010EEAEC17F0010ECC
:102E4800EAEC17F084921D380F0B60EC18F01D5057
:102E58000F0B60EC18F01E50D8B405D0320E0400E9
:102E6800E82EFDD71200000E166E020E156E29EC24
:102E780018F01200000E611A000E621A000E631A92
:102E8800800E641A5DC049F05EC04AF05FC04BF026
:102E980060C04CF061C04DF062C04EF063C04FF0AE
:102EA80064C050F067EC0CF049C05DF04AC05EF0B9
:102EB8004BC05FF04CC060F01200206E09D0800E4D
:102EC80005D0C00E03D0900E01D0D00E216E0DD0CB
:102ED8001F50010AD8B4F3D7030AD8B4F2D7010AAD
:102EE800D8B4F1D7070AD8B4F0D720042126215046
:102EF80080091D6E000E1AEC17F012001B6E1BC025
:102F080017F017461746C2501718C30B1718C26E8A
:102F1800C282C2B2FED7C350C4CF17F0186A17C016
:102F280018F0176A1710196E18501A6E19C015F094
:102F38001AC016F01200500EF66E310EF76E000E23
:102F4800F86E00EE65F010EE06F00900F5CFEEFF22
:102F5800E550E150FAE100EEEEF0080EEE6AE80600
:102F6800FDE16B906B92000115EF06F0F090000107
:102F7800EE51EF11D8A405D0000EEF6F010EEE6FE1
:102F88001200EE05EF11D8A405D0000EEF6F020E67
:102F9800EE6F1200000EEF6F000EEE6F120015506C
:102FA800161017101810D8B408D0000E151A000EF5
:102FB800161A000E171A800E181A15C015F016C02A
:102FC80016F017C017F018C018F01200186E000E8F
:102FD8001A6E000E196E03D00400194A1A2A1850E6
:102FE800156E166A1950155C1650800A176E1A501D
:102FF800800A1758D8A01200EFD7F292000E6A6E16
:10300800000E696EF6C001F0F7C002F0011E021E44
:10301800014A022A010E01240001F66F000E022067
:10302800F76F120015501702F3CF19F0F4CF1AF00A
:1030380015501802F3501A2616501702F3501A2684
:1030480019C015F01AC016F01200000E186E000E06
:10305800176E07D0C80E04000400E82EFCD7174AE4
:10306800182A1550175C16501858D8B01200F2D705
:1030780009D016C0D9FF17C0DAFFDF508CEC18F062
:10308800164A172A16C0D9FF17C0DAFFDF50D8B47E
:103098001200EFD709D023C0D9FF24C0DAFFDF50D0
:1030A800C6EC16F0234A242A23C0D9FF24C0DAFF2D
:1030B800DF50D8B41200EFD71C6E1CC01BF01B3AAF
:1030C80083501B180F0B1B18836E010EEAEC17F0C8
:1030D8008482040000F084921200176E000E166EAF
:1030E8003A0E176005D02F0E176402D0010E166E27
:1030F80016C015F015301200ABB402D0ABA202D046
:10310800AB98AB889EAA02D0010E1200000E1200E6
:10311800156E01D00400ACA2FDD715C0ADFF12009A
:10312800000EC26EC280890EC06E12000B0ED76EE2
:10313800DC0ED66E12000B0ED76EDC0ED66E1200A9
:0E314800AECF15F015501200280C0106010044
:10FDD800000000803F000020410000C84200007A77
:10FDE8004400401C460050C34700247449809618BC
:10FDF8004B20BCBE4C286B6E4EF9021550EC78AD0A
:10FE080060CAF249710000803FCDCCCC3D0AD723AF
:10FE18003C6F12833A17B7D138ACC52737BD378640
:10FE28003595BFD63377CC2B325F708930FFE6DB50
:10FE38002E08E53C1E6042A20D010000000A0000E9
:10FE48000064000000E803000010270000A08601FD
:10FE58000040420F008096980000E1F50500CA9A1C
:10FE68003B33202D20546F204368616E6765205412
:10FE7800696D653A20456E74657220546865204E38
:10FE880065772054696D6520496E20546865204661
:10FE98006F726D6174205748483A4D4D3A53530A72
:10FEA8000D005468697320576F726B205761732077
:10FEB800446F6E65204279205B5461686572204109
:10FEC8006E6179615D20416E64205B4164616D20E3
:10FED80053696B73696B5D0A0D000A0D54696D6592
:10FEE8003A20253032643A253032643A253032647B
:10FEF8000A0D3D3D3D3D3D3D3D3D3D3D3D3D3D3D8D
:10FF08003D3D3D3D3D0A0D0031202D20546F2056CA
:10FF1800696577205468652054656D7065726174F1
:10FF28007572653A2050726573732054200A0D006B
:10FF38000A0D54656D703A2025342E31660A0D3D40
:10FF48003D3D3D3D3D3D3D3D3D3D3D3D3D3D3D3DD9
:10FF58003D3D0A0D0032202D20546F2056696577EB
:10FF6800205468652054696D653A20507265737332
:10FF78002052200A0D0020205B54616865722C20F5
:10FF88004164616D5D2020004E6F726D616C204D83
:10FF98006F646520202020200053657475703D3EF5
:10FFA8005B25735D20202000253032643A253032ED
:10FFB800643A2530326400543D25342E32660A00F6
:10FFC8005B433A25735D2020005B483A25735D202A
:10FFD80020005365636F6E6473004D696E757465B8
:10FFE8007300286E756C6C2900486F757273004F2A
:07FFF8004646004F4E0000D9
:020000040020DA
:08000000FFFFFFFFFFFFFFFF00
:020000040030CA
:0E000000FF011F1FFF8385FF0FC00FE00F40A1
:00000001FF
